:020000040800F2
:10000000D8060020A1010008931D0008D31C000899
:10001000911D00085D120008B921000800000000D1
:100020000000000000000000000000005321000854
:100030005F12000800000000951D0008552100080F
:10004000BB010008BB010008BB010008BB010008A0
:10005000BB010008BB010008BB010008BB01000890
:10006000BB010008BB010008BB010008BB01000880
:10007000BB010008BB010008BB010008BB01000870
:10008000BB010008BB010008BB010008BB01000860
:10009000BB010008BB010008BB010008BB01000850
:1000A000BB010008BB010008BB010008BB01000840
:1000B000BB010008BB010008BB010008BB01000830
:1000C000BB010008BB010008BB010008BB01000820
:1000D000BB010008BB010008BB010008BB01000810
:1000E000BB010008BB010008BB01000800F002F8DA
:1000F00000F047F80AA090E8000C82448344AAF17B
:100100000107DA4501D100F03CF8AFF2090EBAE878
:100110000F0013F0010F18BFFB1A43F0010318473B
:10012000303D0000503D0000103A24BF78C878C12F
:10013000FAD8520724BF30C830C144BF04680C60ED
:10014000704700000023002400250026103A28BF35
:1001500078C1FBD8520728BF30C148BF0B60704739
:10016000662902F07983002070471FB500F03CFB40
:1001700004000020002102F0CBF8E0601FBD10B5A4
:1001800010BD00F02EFC1146FFF7EFFF02F040F823
:1001900000F04CFC03B4FFF7F2FF03BC00F090FC4E
:1001A0000948804709480047FEE7FEE7FEE7FEE70B
:1001B000FEE7FEE7FEE7FEE7FEE7FEE70448054947
:1001C000054A064B70470000B7210008ED00000803
:1001D000D8000020D8060020D8020020D802002035
:1001E0000FB41CB50C0007AA009001D02044401E9B
:1001F000074B7B4469460190069800F0D0FA002C2A
:1002000003D06946002000F0DDFA1CBC5DF814FB49
:10021000D90500002DE9F0474FF0000A8946044651
:10022000C0F820A02046E1688847002876D025281D
:1002300006D0D4E901219047206A401C2062F1E7F2
:10024000E168204600258847C4F81CA00646002720
:10025000C4F818A02A2E09D0304601F0D2FF38B3D6
:1002600004EB8708303EC8F8186019E059F8041B01
:10027000204604EB87029161E1688847012F06461A
:1002800018D1E069002820DA25F020051DE0D8F813
:10029000180000EB800006EB40003038C8F818006A
:1002A0002046E1688847064601F0ABFF0028EED102
:1002B000012F0AD02E2E08D12046E16888477F1CE6
:1002C0000646022F45F02005C4DBA069002803DAAA
:1002D000404245F00105A061E80701D025F0100576
:1002E000B6B1A6F14100192802D8203645F40065C0
:1002F0004A463146204625604D46FFF731FF58B14A
:10030000012806D0ED1D25F0070000F1080989E756
:1003100004E005F1040985E730468AE7206ABDE874
:10032000F0874FF0000200B51346944696462039F8
:1003300022BFA0E80C50A0E80C50B1F12001BFF49E
:10034000F7AF090728BFA0E80C5048BF0CC05DF804
:1003500004EB890028BF40F8042B08BF704748BF52
:1003600020F8022B11F0804F18BF00F8012B7047C6
:1003700070477047704770472DE9FF4F0C461E4687
:100380004FF0FF378BB0D2E90001DDF860800A90B2
:100390008A46C1F30A5505B93D46002108464FF08B
:1003A0000000BAF1000F00F4400005DA00EB800015
:1003B0004FF4400101EA50004FEA9059B9F1010FA2
:1003C00000DDB9460A9850EA4A000ED044F61050B3
:1003D000A5F2FF3545432F14B8F1000F1ED075422A
:1003E000291E1EDDC9F100021CE0B8F1010F4FF01B
:1003F000000001D0302103E0F24305E02154401C0D
:10040000B042FBDB30460022002121540B99C1F899
:100410000880C1E900200FB0BDE8F08FBD1B6D1C46
:10042000DEE74A4600DA694206A800F067FA06AB42
:1004300093E8070003AB83E8070050460A9900F0F1
:1004400045FB8DE80700A0F500501F380090039889
:10045000002D0ADD42F21F014A460844002303A989
:100460000390684600F0AEFD09E0A0F500504A4652
:100470001F38002303A90390684600F0B8FD8DE8FB
:1004800007000004000C03D04FF0FF30410800E0EB
:100490001046B8F1000F03D00022009215461EE06E
:1004A000751E05D400F0A4F9303262556D1EF9D5E1
:1004B000B3460122084302D000227F1C04E02078CA
:1004C000302801D100227F1E002A099784D01DE028
:1004D000112D07DA00F08CF9303262556D1C50EAAC
:1004E0000102F5D1084302D00098C8B10EE0002106
:1004F000681E05E0235C625C63542254401E491C64
:100500008142F7DBAB46A81B401E0990002004F88F
:100510000B000B98099AC0F80880C0E9002B7AE715
:1005200011264FF0000857E72DE9F04F88460446A2
:10053000D21D22F0070191B0D1E90001CDE90A01F5
:1005400001F03BFE02460B98C00F01D02D2007E0C2
:100550002068810701D52B2002E0202101EAC0009C
:10056000032A099001D0072A05DB034641462046AD
:1005700000F084F90BE12078800601D5E06900E005
:100580000620B8F1650F814606D0B8F1660F18D085
:10059000B8F1670F70D131E00020B9F1110F009070
:1005A00001DB112301E009F101030AAA01A90CA84A
:1005B000FFF7E2FEDDE90C70002609F10105834634
:1005C00047E001204B4600904FF000470AAA01A9DE
:1005D0000CA8FFF7D1FEDDE90DB00C995D460026B1
:1005E00010B909F101000D18B9EB050003D4C0F1F1
:1005F000FF3609F10105A5EB09002BE0B9F1010F68
:1006000001DA4FF001090020B9F1110F00904846BE
:1006100001DD112300E003460AAA01A90CA8FFF797
:10062000ABFEDDE90C704D460026834620780007BE
:100630000AD4AB4500DA5D4601A8012D04DD41195D
:1006400011F8011C302907D04F4502DA17F1040FC9
:1006500004DA012082460FE06D1EEEE7002F02DC77
:10066000ED1B3E4403E0781CA84200DD7D1CB81B56
:1006700000F1010A4FF000472078000703D4AA4593
:1006800001DB4FF0FF3A0021B7F1004F0DF14308B5
:100690008DF8431024D002202B23002F01DA7F4253
:1006A0002D230A21021EA0F1010000DC5FB197FB9F
:1006B000F1FC97FBF1F201FB1C7C17460CF1300CAE
:1006C00008F801CDEEE7A8F10100037021880905C3
:1006D00001D5452100E06521A0F1010800F8011CC9
:1006E00009980FA9A1EB0807FF1D00B101204119CE
:1006F00001EBEA70A1693844081A401EA061207815
:10070000C00602D42046AFF30080099828B1D4E98E
:1007100001219047206A401C20622078C00622D523
:100720002046AFF300801EE0002E04DBB34502DD5F
:1007300001A8805D00E03020D4E901219047206AC3
:10074000401C2062761CAAF101005FEA000A0AD16F
:1007500000F04AF8C0680168405CD4E90121904784
:10076000206A401C2062281EA5F10105DCDC07E0A0
:10077000D4E9012118F8010B9047206A401C20623F
:10078000381EA7F10107F3DC2046AFF300800320F9
:1007900011B041E601694A1C02610878704700B552
:1007A0008FB0CDE901310021059105497944CDE9AA
:1007B000031011466846FFF72DFD0FB000BD000085
:1007C000E5FFFFFF0A6802F8010B0A607047D1E9F4
:1007D00000239A4202D2531C0B6010707047000035
:1007E00000487047780000200048704798000020BB
:1007F00030B5B0F10A024FEA900E71F100034EEAF3
:10080000817EB0EB0E0061EB91014FEA101E4EEAC3
:10081000017E10EB0E0041EB11114FEA102E4EEA53
:10082000016E10EB0E0041EB11214FEA104E4EEA23
:10083000014E10EB0E0041EB1141401841F1000157
:100840004FEAD00040EA41704FEAD10110EB800539
:100850004FEA810444EA907444EB01046D1944EBBF
:100860000404521BA3414FF0000348BF0A3200D5D5
:1008700030BD401C41F1000130BD00002DE9F041C8
:100880001F46044603260168072A01F4006004DBC2
:1008900008B116A505E016A503E008B115A500E00E
:1008A00015A521F010002060A069C01EA0610FB145
:1008B000401EA0612046AFF300804FB1D4E9012172
:1008C00038469047206A401C2062C01C206206E027
:1008D000206AFAE7D4E9012115F8010B9047761E4A
:1008E000F8D22046AFF30080BDE8F0814E414E00C3
:1008F0006E616E00494E4600696E66002DE9F04754
:10090000814616468AB0354878440DC88DE80D00FA
:1009100032487844801C03AC0DC884E80D0041F6D1
:100920009B300844372190FBF1F290FBF1F5A5F1E3
:10093000800501FB12041B3C02D56442012000E04B
:100940000020DFF898A080460027FA44AAF1BE0AEA
:100950000EE0E0070AD03246684607EB4701012364
:100960000AEB810100F043FB8DE8070064107F1C57
:10097000002CEED1194F7F44AE3F19E0E80715D0A7
:1009800007EB04100DF1180A90E80E008AE80E003B
:10099000C068F04201D1981908903246012306A997
:1009A00003A800F024FB03AB83E807006D10641C70
:1009B000002DE3D14FF0010332466946B8F1000F34
:1009C00003A802D000F0FEFA01E000F010FBC9E934
:1009D0000001C9F808200AB0BDE8F0872C350000F6
:1009E00070477546FFF7FCFEAE4605006946534664
:1009F00020F00700854618B020B5FFF7DFFBBDE803
:100A000020404FF000064FF000074FF000084FF075
:100A1000000B21F00701AC46ACE8C009ACE8C00906
:100A2000ACE8C009ACE8C0098D46704710B5044673
:100A3000AFF300802046BDE81040FFF7ABBB0000DD
:100A40004FF0013C50F8042B51F8043B9A4221D15D
:100A5000A2EB0C03934313EACC1317D150F8042BE9
:100A600051F8043B9A4215D1A2EB0C03934313EACD
:100A7000CC130BD150F8042B51F8043B9A4209D106
:100A8000A2EB0C03934313EACC13DBD04FF000002E
:100A9000704700BFD01A01BAB1FA81F101F0180114
:100AA00022FA01F0CB40C1F12001DBB2C0B2C01A82
:100AB0002CFA01F3D11A914311EAC311E6D1704720
:100AC00001491820ABBEFEE7260002005FEA400C99
:100AD00008BF91F0000F4FEA8C234FEAC12243EA8E
:100AE00051514FEA1C5018BF00F5F0404FEA30005A
:100AF00018BF41F000415FEA6C5C00F02980BCF156
:100B0000FF3F08BF40F080407047130C06BF12043F
:100B10004FF0100C4FF0000C130E04BF12020CF13A
:100B2000080C130F04BF12010CF1040C930F04BF47
:100B300092000CF1020CD30F04BF52000CF1010C17
:100B400011464FF00002A0F11F00A0EB0C0070470F
:100B500011F0004F08BF704731F000413FF4D5AFAE
:100B60000B0C06BF09044FF0100C4FF0000C0B0EDD
:100B700004BF09020CF1080C0B0F04BF09010CF1B2
:100B8000040C8B0F04BF89000CF1020CCB0F04BFC7
:100B900049000CF1010CCCF12003A0EB0C0022FA6F
:100BA00003F302FA0CF241EA030100F1010070477D
:100BB00020F07F4C80EA030023F07F47ACEB070373
:100BC00003F57C5300F0004003F1FF032DE9804959
:100BD0004FEA154B09B44FEA144325EA0B4E24EAB9
:100BE00003480FF2042606EB132749083E785FEA14
:100BF000320203FB0667C7F5000707FB06F64FEA5C
:100C000054374FEAD64606F1020607FB066CCCF1D4
:100C1000005C4FEA1C472CEA074C07FB06F40CFB70
:100C200006F504EB15464FEA961634BF00204FF048
:100C300000404FEAD13706FB07FC4FEA1C4C0CFB87
:100C40000BF7D21B03FB0CF761EB07010CFB0EF754
:100C5000B0EB074072EB17420CFB08F734BFA2EB76
:100C60000742B2EB074261EB17414FEA0C444FEAEF
:100C7000910706FB07FC4FEA1C4C0CFB0BF7B0EB93
:100C8000C74072EB573203FB0CF734BFA2EBC742ED
:100C9000B2EBC74261EB57310CFB0EF7B0EBC7006C
:100CA00072EB57720CFB08F734BFA2EBC702B2EB32
:100CB000C70261EB5771039F4FEA816141EA9211CC
:100CC00004EBCC044FEAD1374FEA826206FB07FC03
:100CD00042EA90124FEA80604FEA1C4C0CFB0BF783
:100CE000D21B03FB0CF761EB07010CFB0EF7B0EB1B
:100CF000074072EB17420CFB08F734BFA2EB074228
:100D0000B2EB074261EB17414FEA8C554FEA91076E
:100D100004EB9C2406FB07FC4FEA1C4C0CFB0BF776
:100D2000B0EBC74072EB573203FB0CF734BFA2EBBA
:100D3000C742B2EBC74261EB57310CFB0EF7B0EB89
:100D4000C70072EB57720CFB08F734BFA2EBC70267
:100D5000B2EBC70261EB577115EB4C254FEA81618D
:100D600041EA92114FEA82624FEAD13742EA901289
:100D700006FB07FC44F100044FEA80604FEA1C4C7C
:100D80000CFB0BF7D21B03FB0CF761EB07010CFB11
:100D90000EF7B0EB074072EB17420CFB08F734BFBD
:100DA000A2EB0742B2EB074261EB174115EB1C15B2
:100DB0004FEA813141EA92414FEA823242EA90425F
:100DC0004FEA80304FEA0C7644F1000448EA0343CE
:100DD0004EEA0B484FF0000EB2EB080C71EB030724
:100DE00024BF624639464EEB0E0E4FF0000B001842
:100DF000524149414BEB0B0BB2EB080C71EB030773
:100E00007BF1000B24BF624639464EEB0E0E4FF0CD
:100E1000000B0018524149414BEB0B0BB2EB080C95
:100E200071EB03077BF1000B24BF624639464EEBA2
:100E30000E0E51EA020718BF46F0010616EB0E76B9
:100E400055F1000254F1000103D5BDE88901BDE868
:100E50000088BDE88901BDE80048B619524141EB60
:100E60000101A3F10103704780807F7E7D7C7B7A46
:100E70007978777676757473727171706F6E6E6D46
:100E80006C6C6B6A6A6968686766666564646363EC
:100E900062616160605F5F5E5E5D5D5C5C5B5B5A72
:100EA0005A595958585757565655555554545353DF
:100EB00052525251515050504F4F4F4E4E4D4D4D3A
:100EC0004C4C4C4B4B4B4A4A4A4949494848484785
:100ED00047474746464645454544444444434343C3
:100EE0004342424242414141002B9C4630D477006C
:100EF0002BD01CB54FEA370703B44FF010004FF06A
:100F00001001BAF1000F06D0BCF1000FDCBF40F0B9
:100F1000080040F008014FF000000FBCBDE8104091
:100F20000BF1010BBBF1010F08BF5FEA170722BFEE
:100F300012F1010211F101014FF0004143F10003F0
:100F400000F0004043EA00007047F9D35708D0E7AB
:100F500046EA064613F1400F4FEA16461FDD13F12D
:100F6000200FDFBF16430A46002120335B42BED06C
:100F7000C3F1200746EA064602FA07F74FEA16468B
:100F800046EA0706C3F1200722FA03F201FA07F73F
:100F900021FA03F14FF0000342EA0702A7E746EA0D
:100FA000020646EA06464FEA164646EA0106BCBF76
:100FB00046EA0646360C4FF000034FF000024FF0B1
:100FC000000194E72DE9804C9A46934670B491E86D
:100FD000380007C831EA400C48BF34EA430C03D557
:100FE000FFF7E6FDFFF780FFF0BCBDE8008C2DE9C0
:100FF000804C9A46934670B491E8380007C810F0C8
:10100000804F08BF13F0804F03D100F005F8FFF7C1
:101010006BFFF0BCBDE8008C20F07F4780EA030046
:1010200023F07F4C07EB0C03A3F57C5300F000404A
:10103000A3F1FE0392F0000F00F0B38095F0000FD3
:1010400000F077802DE901494FEA11404FEA14463C
:1010500021EA004800FB06FC24EA064708FB06F6E6
:1010600007FB08F800FB07F718EB06484CEB164C9B
:101070004FEA124B18EB07484FEA15464CEB174066
:1010800022EA0B4E0BFB06FC25EA06470EFB06F692
:1010900007FB0EFE0BFB07F71EEB064E4CEB164C48
:1010A0004FF000061EEB074E4CEB174B18EB0B08EE
:1010B00040F1000018EB0E0B58EB000840F1000067
:1010C0008F1A4FF000013CBFC943661B14BFB5EB3C
:1010D000040C00213CBFC943F61B4FEA17444EEAFB
:1010E0008E0E27EA04454FEA1C4704FB07622CEAF0
:1010F000074C05FB07F70CFB05F604FB0CFC16EB95
:10110000074642EB174216EB0C4642EB1C421BEB28
:10111000060658EB0202414146EA9E0601D5BDE8AB
:101120000189B619524141EB0101A3F10103BDE868
:1011300001894FEA14454FEA114724EA054621EA9E
:10114000074C05FB07F406FB07F70CFB06F105FB54
:101150000CFC11EB074144EB17444FEA124711EB2B
:101160000C4144EB1C4422EA074C05FB07F206FB4A
:1011700007F70CFB06F605FB0CFC16EB074642EBEB
:10118000174216EB0C4642EB1C456A1854F100015D
:1011900048BF7047B619524141EB0101A3F1010369
:1011A000704795F0000F37D04FEA11424FEA1447CD
:1011B00021EA024624EA074C02FB07F106FB07F787
:1011C0000CFB06F402FB0CFC14EB074441EB17414B
:1011D0004FEA154714EB0C4441EB1C4125EA074C40
:1011E00002FB07F506FB07F70CFB06F602FB0CFCFF
:1011F00016EB074645EB174516EB0C4645EB1C4234
:10120000121951F1000148BF7047B619524141EB24
:101210000101A3F1010370474FEA14454FEA11475A
:1012200024EA054621EA074C05FB07F106FB07F710
:101230000CFB06F24FF0000605FB0CFC12EB07421C
:1012400041EB174112EB0C4251EB1C4148BF704778
:10125000921841EB0101A3F101037047FEE77047CB
:1012600072B6FEE770B5044600F004F90546601C4E
:1012700002D004480078044400F0FCF8401BA0426F
:10128000FAD370BD000000202DE9F84FDFF8B891C7
:101290000024A9F1040B23460F2709F1040AABF13E
:1012A000040EC9E00125A5402A40AA427DD1674E1F
:1012B000D1F804C0ACEB0608B44532D014DCBCF164
:1012C000030F3AD009DCBCF1000F2AD0BCF1010FAA
:1012D0001CD0BCF1020F31D11DE0BCF1110F17D0B1
:1012E000BCF1120F2AD119E0B8F5881F19D006DC1D
:1012F000B8F5803F15D0B8F5801F1FD111E0B8F5C3
:10130000001F0ED0B8F5041F18D10AE0CB6815E015
:10131000CB681B1D12E0CB6808330FE0CB680C33A1
:101320000CE08B682BB1012B4FF0080303D0456113
:1013300004E0042302E0056100E00023FF2A01D855
:10134000064601E000F104064FEA840501D9A5F143
:101350002005D6F8008007FA05FC28EA0C0803FAF5
:1013600005F548EA0508C6F800804D68ED0062D52D
:10137000374DAE6946F00106AE61AD6924F0030653
:1013800005F001050095334D06EB050CDCF808501F
:10139000A607360F07FA06F825EA0805DFF8B88031
:1013A000404503D14FF0000817E044E0DFF8AC807F
:1013B000404502D14FF001080FE0DFF8A48040451E
:1013C00002D14FF0020808E0DFF89880404502D1D2
:1013D0004FF0030801E04FF0040808FA06F848EA65
:1013E0000508CCF808804D68D9F80060ED024D463C
:1013F00001D5164300E096432E604D68DAF8006090
:10140000AD02554601D5164300E096432E604D6867
:10141000DBF80060AD035D4601D5164300E096435E
:101420002E604D68DEF80060ED03754601D5164369
:1014300000E096432E60641C0D682A46E5407FF468
:1014400031AFBDE8F88F0000080401400000111022
:10145000001002400000014000080140000C014063
:1014600000100140001401400AB1016170470904F5
:10147000FBE7000001488068704700000000002082
:1014800002488168027811448160704700000020A2
:10149000074810B5016841F010010160032000F019
:1014A00067F80F2000F006F800F024F8002010BDC7
:1014B0000020024070B50D4D04464FF47A71287833
:1014C000B1FBF0F00A490968B1FBF0F000F0EDFB68
:1014D00048B9102C07D200222146501E00F028F8EF
:1014E00000206C6070BD012070BD00000000002075
:1014F0000C0000200C4808B5816941F001018161B0
:10150000816901F001010091C16941F08051C1611F
:10151000C06900F0805000900448416821F0E0610B
:1015200041F00071416008BD001002400000014020
:10153000F0B40E4B1B680C46C3F30223C3F107053E
:10154000042D00D90425191D072901D2002300E02C
:10155000DB1E012606FA05F1491E214099409E40F6
:10156000761E16403143F0BC00F03BBE0CED00E0AF
:10157000064900F0070208684FF6FF03184040EAEA
:101580000220034A10430860704700000CED00E0A1
:101590000000FA052DE9F0470F46050061D0434EE3
:1015A000306800F00700B84209D2306820F0070028
:1015B00038433060306800F00700B84251D12868E5
:1015C0003B4C810712D5400703D5606840F4E060CA
:1015D00060602878000703D5606840F46050606060
:1015E0006068A96820F0F000084360602878C007B0
:1015F00028D06868012810D02168022810D08907F7
:1016000000292EDA616821F0030101436160FFF7D0
:1016100031FF804641F288390DE021688903EFE708
:101620008901EDE7FFF726FFA0EB0801494502D944
:101630000320BDE8F0876068696800F00C00B0EB3B
:10164000810FEFD1306800F00700B8420BD9306845
:1016500020F0070038433060306800F00700B842DF
:1016600001D00120E5E72878400705D56068E968E2
:1016700020F4E060084360602878000706D56068C1
:10168000296920F4605040EAC100606000F018F859
:101690006168084AC1F30311515CC84006490860FB
:1016A00006480068FFF706FF0020C2E7002002405E
:1016B000001002406E2800080C00002004000020EA
:1016C0000E4A51680E4801F00C03042B11D0082B70
:1016D0000FD10C48C1F38343C903C05C0AD55168DC
:1016E000084AC1F34041921E515C054A5043B0FB89
:1016F000F1F0704704494843704700000010024071
:1017000000127A005E28000800093D002DE9F84F1C
:10171000040070D02078C04DC00749D06868C0F37D
:101720008100012807D06868C0F38100022809D130
:101730006868C00306D52868800339D5606800282A
:10174000E7D035E06068B0F5803F0BD010B1B0F560
:10175000A02F11D0286820F480302860286820F459
:10176000802002E0286840F480302860606890B1F2
:10177000FFF780FE06460AE0286840F480202860D3
:10178000F0E700BFFFF776FE801B642873D8286857
:101790008003F7D50CE0FFF76DFE064605E000BFBD
:1017A000FFF768FE801B6428F0D828688003F7D410
:1017B00020789A4E80074FF001094FF0000839D584
:1017C000686810F00C0F07D06868C0F38100022829
:1017D00009D16868C00306D42868800714D5206939
:1017E000012808D110E02069B0B1C6F80090FFF7D9
:1017F00041FE074605E00AE1FFF73CFEC01B022858
:10180000C4D828688007F7D52868616920F0F800F7
:1018100040EAC10028600DE0C6F80080FFF72AFE0C
:10182000074604E0FFF726FEC01B022823D82868DD
:101830008007F7D4207800072CD57948A169D9B161
:10184000C0F80090FFF716FE074604E0FFF712FE0F
:10185000C01B02280FD8686A8007F7D571484FF47B
:10186000FA510068B0FBF1F0009000BF0098411EF3
:101870000091FAD20EE080E0C0F80080FFF7FAFD98
:10188000074604E0FFF7F6FDC01B022875D8686A1A
:101890008007F7D42078400760D5E8690027C000AA
:1018A00008D4E86940F08050E861E869012700F059
:1018B000805000905C480168C90513D401688346D4
:1018C00041F480710160FFF7D5FD824606E000BF5C
:1018D000FFF7D0FDA0EB0A0064284ED8DBF800002B
:1018E000C005F5D5E06801280AD008B1052813D055
:1018F000286A20F001002862286A20F0040002E033
:10190000286A40F001002862E06841F2883B98B103
:10191000FFF7B0FD82460BE0286A40F00400286221
:10192000EEE700BFFFF7A6FDA0EB0A0159455AD824
:10193000286A8007F6D50CE0FFF79CFD824605E09B
:10194000FFF798FDA0EB0A0159454CD8286A80079B
:10195000F6D41FB1E86920F08050E861E06988B3EF
:101960006968C1F38101022944D00228C6F8608069
:1019700004D0FFF77FFD044638E034E0FFF77AFD3E
:10198000074604E0FFF776FDC01B02282BD8286825
:101990008001F7D4206AB0F5803F05D16868A1685E
:1019A00020F4003008436860D4E9080108436968FE
:1019B00021F4741108436860C6F86090FFF75AFD7F
:1019C000044606E025E000BFFFF754FD001B022897
:1019D00009D828688001F7D51BE000BFFFF74AFD52
:1019E000001B022802D90320BDE8F88F2868800177
:1019F000F4D40EE00128F7D06868226A00F4803140
:101A0000914204D1616A00F47010884201D0012033
:101A1000EAE70020E8E70000001002400000424230
:101A2000800442420C0000200070004070B50400A9
:101A300009D0606A002540B125616561A56294F80E
:101A4000510040B10CE0012070BD6068B0F5827FAC
:101A5000F4D0E561F2E784F85050204600F040F8F9
:101A6000022084F851002068016821F040010160E3
:101A7000A088218900F4827001F404410843A189FF
:101A800001F400610843217C01F002010843217D3B
:101A900001F001010843218B01F400710843217F0B
:101AA00001F03801084394F8201001F08001084348
:101AB000218D01F40051084321680860A0690421C8
:101AC00001EA1040216848602068C16921F4006182
:101AD000C1616565012084F85100002070BD0000DF
:101AE00000B585B000210091019102910391006839
:101AF0000F4988421AD10F48816941F480518161B0
:101B0000816901F480510491816941F0040181618E
:101B10008069694600F004000490A0200090022033
:101B20000190032003900448FFF7AEFB05B000BD11
:101B30000030014000100240000801402DE9F84F3C
:101B4000044690F850000026984615468A4601281B
:101B50000CD0012784F85070FFF78CFC814694F874
:101B60005100B346012804D002269AE00220BDE8C5
:101B7000F88FBAF1000F6FD0002D6DD0032084F8DC
:101B80005100C4F854B0C4F830A0A586E586C4F866
:101B900038B0A4F83CB0A4F83EB0C4F844B0C4F8DF
:101BA00040B0A068B0F5004F09D12068016821F06D
:101BB000400101602068016841F4804101602068B3
:101BC0000168490603D4016841F040010160E06802
:101BD000B0F5006F606803D058B3012D29D049E0FB
:101BE00008B1012D1FD1206B21680088C86006E074
:101BF00020688168890709D5216B0988C160206B3D
:101C0000801C2063E08E401EE0860CE0FFF732FC73
:101C1000A0EB0901414503D3B8F1FF3F03D006E033
:101C2000B8F1000F03D0E08E0028E1D125E00326B3
:101C300035E0206B21680078087306E02068816831
:101C400089070AD5216B09780173206B401C20633A
:101C5000E08E401EE0860DE01FE0FFF70BFCA0EBDE
:101C60000901414503D3B8F1FF3F03D0DFE7B8F1E5
:101C7000000FDCD0E08E0028E0D14A4641462046E5
:101C800000F089F808B120206065A06818B92068C4
:101C9000C16880680090606D08B1012601E084F899
:101CA000517084F850B0304661E710B5401EB0F175
:101CB000807F01D3012010BD4FF0E02460610F212F
:101CC000601700F08EFA0020A0610720206100203C
:101CD00010BDFEE770B586B000241848009401944A
:101CE00002940394816941F020018161816901F0CE
:101CF00020010491816941F004018161816901F051
:101D000004010491816941F00801816180690C4EF0
:101D100000F0080040F603450490002229463046B2
:101D2000FFF7A2FB01200095CDE9010402200390FA
:101D300069463046FFF7A8FA06B070BD00100240B1
:101D4000000C0140114810B50F4901604FF4827139
:101D500041604FF4004181600021C1604FF4007286
:101D60000161C0E905121822C0E9072141628162C0
:101D70000A21C162FFF75AFE002803D0BDE81040D7
:101D8000FFF76EBA10BD00000030014020000020B7
:101D9000FEE7FEE7704738B50B4600920446002286
:101DA000802100F009F8002804D0606D40F0200088
:101DB0006065032038BD00002DE9F8431E469146BA
:101DC00088460446089DFFF755FB401B351AFFF770
:101DD00051FB074625480068C0F3CB30684338E024
:101DE000701C37D0FFF746FBC01BA84203D215B1C9
:101DF000009860B32CE02068416821F0E001416068
:101E00006068B0F5827F0BD1A068B0F5004F02D0BA
:101E1000B0F5806F04D12068016821F040010160B5
:101E2000A06AB0F5005F09D12068016821F4005173
:101E300001602068016841F400510160012084F8CC
:101E40005100002084F850000320BDE8F8830025ED
:101E5000401E00902068816838EA010004D000210B
:101E60004945BDD10020F0E70121F9E70C00002031
:101E70002DE9F04110F8015B044617E0207800F0EE
:101E800011F96078A41C00F0800730F0800604D0BF
:101E90003146204600F018F934443FB114F8010BE4
:101EA000FF2801D14FF4FA70FFF7DCF96D1EEDB297
:101EB000E4D2BDE8F08100002DE9F8431F46DDF8CB
:101EC000208014460D460646A0283BD2502D39D21C
:101ED0003019401EA02802DBC6F1A00084B2E81928
:101EE000401E502802DBC5F1500087B200F05EF8BA
:101EF000E819401EC3B23019401EC2B2E9B2F0B2B6
:101F000000F05CF84FEA18208DF800008DF8018091
:101F1000012202210C48FFF7A7FA4FF0FF360DE02F
:101F2000254607E03346022269460848FFF706FEC9
:101F30006D1EADB2002DF5D17F1EBFB2002FEFD1C7
:101F400000F060F8BDE8F883000C0140200000209C
:101F500008B5002100905023A0220846FFF7ACFFEF
:101F600008BD000010B500F021F80E4C0022012140
:101F70002046FFF779FA0520FFF774F90122114690
:101F80002046FFF771FA0848FFF772FF06483B301A
:101F9000FFF76EFF04484A30FFF76AFFBDE81040C4
:101FA00000F030B8000C0140463D000800224FF41C
:101FB00080610148FFF758BA000C0140F8B50746A8
:101FC0001C4616460D462A2000F06CF800200090B2
:101FD0008DF801708DF803600421684600F074F8F4
:101FE0002B2000F05FF818358DF8015018348DF86B
:101FF00003400421684600F067F82C2000F052F8F6
:10200000F8BD0000012291020148FFF72DBA00003F
:10201000000C01400FB42DE9FF5F4A1EC3F30726F1
:102020003244D4B2DFB2421EDDE913A93A44D2B23F
:10203000C9B2C0B22346FFF7C1FF00252CE01098BB
:102040001299203800FB0650002431F810804FEA26
:102050001A2002900AF0FF0001904FEA192009F0BF
:10206000FF0B009015E000BF08FA04F0000406D54D
:1020700002988DF80C0001988DF80D0004E000988E
:102080008DF80C008DF80DB0022103A800F01CF8AB
:10209000641CA742E8D86D1CAE42D0D8BDE8FF1F33
:1020A0005DF814FB01B5002202210548FFF7DCF9B9
:1020B0004FF0FF33012269460248FFF73FFD08BD9C
:1020C000000C01402000002070B50D46044601229E
:1020D00002210648FFF7C8F9AAB22146BDE87040C0
:1020E0004FF0FF330248FFF729BD0000000C01400C
:1020F000200000202DE9FE4F9846DDE90DA9144689
:102100000E460546DDF830B0FFF750FF08F0FF0738
:1021100018E07819A02809D3C8F3072081198EB2D6
:1021200000253044502810D2202A0AD0CDF800B023
:10213000CDE901A9434631462846FFF76BFF7819E0
:1021400085B2641C2278002AE3D1BDE8FE4FFFF778
:1021500059BF7047FFF794B930B58FB02821684652
:10216000FEF7DFF814210AA8FEF7DBF801210804C6
:10217000CDE900100024029402250491CDE9075016
:102180004FF4E01009906846FFF7C0FA08B172B644
:10219000FEE70F20CDE90A054FF48060CDE90C4041
:1021A00002210AA80E94FFF7F5F9002801D072B6B3
:1021B000FEE70FB030BD7047FEE7490050EAC1208E
:1021C00018BF04204A0D18BF40F0010040F2FF7212
:1021D000B2EB515F08BF40F00200012808BF0520A4
:1021E00070470907090E002804DB00F1E02080F8A1
:1021F0000014704700F00F0000F1E02080F8141D7B
:10220000704730380A2801D20120704700207047FB
:1022100094B0FFF73DF9FFF79FFFFFF75BFDFFF776
:1022200091FDFFF79FFE0020FFF792FE0025402161
:1022300003A8FEF776F8284CDFF8A08000274FF4BB
:1022400078494FF4FC6A4FF01F0B284600F08EFAD5
:102250000E460546CDE9005621A2172103A8FDF739
:10226000BFFFCDE901976068009000211FA20846DA
:102270002368FFF73FFFCDE901A7606800901DA22A
:10228000122100202368FFF735FFCDE901B7606810
:10229000009003AA242100202368FFF72BFF4FF6AC
:1022A000FF70CDE90107D8F80410009115A236217E
:1022B0000020D8F80030FFF71DFF6420FEF7D2FFA2
:1022C000284631464FF03332104B00F069F800F0E9
:1022D00035F80546B9E7000018000020100000207E
:1022E00069203D20252E3166000000003230323456
:1022F000000000004861707079204E6577205965B4
:102300006172000054657374310000003333D33FB1
:1023100010B500290AD00878002807D0054878446D
:10232000FEF78EFB002801D0002010BD0248784443
:1023300010BD0000521B00004A1B000021F00042AB
:10234000A2F16052B2F5801F01F0004328BFD2F124
:102350007F6C0BD95FEA001C43EAC20242EB50706B
:1023600018BF704728BF20F001007047B2F5801FEA
:10237000BCBF184670474FEA410C1CF5001F02D243
:10238000084600F064BA70B500F0B2F800000089A9
:10239000FFF7F6BF4FF00040A0F580007047000047
:1023A00010B591EA030F48BF83F0004300F1FC80B1
:1023B000841A71EB030C05D2121943EB0C03001BBA
:1023C00061EB0C01DFF824E14FEA1154A4EB135C3C
:1023D0001EEA430F18BF9EEA445F73D023EA0E0340
:1023E000DCF1200E21EA045143F4801332D322FAA7
:1023F0000CFE10EB0E0023FA0CFE41EB0E01CCF1AB
:10240000200E03FA0EFE10EB0E0051F10001B1F5A3
:10241000801FCCF1200E32D201EB045112FA0EF2E1
:10242000BDE8104058BF7047401C38BF5FEA420209
:1024300018BF7047002814BF20F0010041F10001CF
:102440004FEA410313F5001F38BF7047A1F1C041A7
:1024500000F09CB8012A43EB0302ACF1200CDCF144
:102460001F0E32BF4FF0000E23FA0CF310EB0300E7
:1024700041EB0451B4EB115FD0D0A1EB045101F555
:10248000801149085FEA300001EB04510ED350F18E
:10249000000038BF12FA0EFE08D1BDE81040C9E7AF
:1024A000401C38BF5FEA4202CAD1C3E7BDE8104012
:1024B0004FEA410313F5001F38BF7047A1F1C04137
:1024C00000F064B89EEA445F08D011EA5E0FBDE8F0
:1024D000104004BF01F0004100207047BDE81040EB
:1024E00070B500F005F800BF64FBBE3E0000E0FFE1
:1024F0000EF1020E2EF0030E5EF8046B364205D488
:10250000012A43EB030515F5001F12D8012841EB02
:10251000010C1CF5001F0CD80ED14FEAD17C15F52B
:10252000001F0CEB4C0C0CF1020C08BF4CEBD37CE5
:1025300004E04FF0080C01E04FEAD37C0CEB4C05B3
:1025400026FA05F606F00706B6F1040C06D20EEBE5
:10255000860CBDE870404CF0010C6047DFE80CF0E1
:10256000090B02024FF000414FF00000A1F50021DD
:1025700070BD19461046012851EB010418BFD4F56F
:10258000001484BF002001F0004170BD0808A0F5D0
:1025900000114FEA3101704710B591EA030F48BFAF
:1025A00083F000433FF504AF841A71EB030C07D2AC
:1025B00012198CF0004C43EB0C03001B61EB0C0177
:1025C000DFF8A4E14FEA1154A4EB135C1EEA430FB9
:1025D00018BF9EEA445F00F0B08023EA6E035242C7
:1025E00021EA0451C3EB6E0338BF5B1EDCF1200E01
:1025F00025D322FA0CFE10EB0E0043FA0CFE41EB41
:102600000E01CCF1200E03FA0EFE10EB0E0051F17C
:102610000001CCF1200E29D412FA0EF201EB045184
:10262000BDE8104058BF7047401C1CBFB2F1004FBE
:10263000704700280CBF491C20F00100704712EBC6
:10264000020E43EB030218BF4FF0010E4EEA4202A6
:10265000ACF1200CDCF11E0E54D943FA0CFE10EB49
:102660000E0051F1FF31CCF11E0ED5D50EF1010E49
:1026700012FA0EFE404141EB010101EB445C5FEABE
:102680005C5C10D910EBDE7001EB045138BFBEF179
:10269000004FBDE8104018BF704700280CBF491C10
:1026A00020F00100704730D24FEAD42C11F5001110
:1026B00024F400641BD0B1FA81F20B3AA41AA41ED0
:1026C000D2F12003914030FA03F31943904001EB1B
:1026D000CC71002C01EB0451BDE81040A8BF70473D
:1026E00001F1C0414FF0000001F000417047B0FA25
:1026F00080F310FA03F100D110BDE41A173C48052D
:10270000C90AE4E701EB045110BD491001EB045183
:10271000BDE810404FEA300002E04FF00001704782
:102720004A0008BF0042F8D0B2F5001F28BF70472A
:1027300001F000414FF0000070479EEA445F07D06F
:1027400011EA5E0FBDE8104004BF00210020704771
:10275000BDE8104070B5FFF7CBFE00BF40DFF63E8E
:1027600083F00041104670470000E0FF43004FEA4D
:10277000D30C4FEA3C0C43401FBF40070CF16051A3
:1027800013F0FE4F70471CF0006F03D100200CF0D7
:10279000004170470CF0004343EA507010B540EA26
:1027A000CC0000F00EF800BF000000924FEA0001DC
:1027B000FFF7ECBE4FF000414FF00000A1F5002103
:1027C00070470EF1020E2EF0030E5EF8044B244209
:1027D00004D44FEA4102B2F17F4F11D84FEA4003CF
:1027E000B3F17F4F0CD80ED14FEAD07CB2F17F4FBE
:1027F0000CEB4C0C0CF1020C08BF4CEBD17C04E050
:102800004FF0080C01E04FEAD17C0CEB4C0324FAAA
:1028100003F404F00704B4F1040C06D20EEB840CAC
:10282000BDE810404CF0010C6047DFE80CF00708F1
:1028300002024FF00040A0F5800010BD08464200A3
:1028400018BFD2F1807288BF00F0004010BDFF2198
:1028500041EAD050C0057047FDF766BE0102020391
:102860000405060708090A0B0C0D0E0F10100000D6
:102870000000000000000102030406070809000030
:102880000000000000000000000000000000000048
:1028900000000010001000100010001000100000D8
:1028A00000100000000000280028002800000000A0
:1028B0000000000000000000000000240024007C54
:1028C00000240048007C0048004800000000003858
:1028D0000054005000380014005400540038001018
:1028E000000000200054005800300028005400145C
:1028F000000800000000001000280028001000342C
:1029000000480048003400000000001000100010D3
:1029100000000000000000000000000000000008AF
:1029200000100020002000200020002000200010C7
:102930000008002000100008000800080008000837
:1029400000080010002000100038001000280000CF
:102950000000000000000000000000000000001067
:102960000010007C001000100000000000000000BB
:102970000000000000000000000000000010001037
:1029800000100000000000000000000000380000FF
:102990000000000000000000000000000000000037
:1029A00000000000001000000000000800080010F7
:1029B000001000100010002000200000000000386F
:1029C0000044004400540044004400440038000027
:1029D0000000001000300050001000100010001027
:1029E000001000000000003800440044000400080B
:1029F00000100020007C00000000003800440004AB
:102A00000018000400040044003800000000000822
:102A10000018002800280048007C0008000800007A
:102A20000000007C004000400078000400040044E6
:102A300000380000000000380044004000780044E6
:102A400000440044003800000000007C000400083E
:102A500000100010002000200020000000000038BE
:102A600000440044003800440044004400380000A2
:102A700000000038004400440044003C00040044CE
:102A800000380000000000000000001000000000FE
:102A90000000000000100000000000000000000026
:102AA00000100000000000000010001000100000E6
:102AB0000000000C003000400030000C000000005E
:102AC0000000000000000000007C0000007C00000E
:102AD000000000000000000000000060001800047A
:102AE00000180060000000000000003800440004EE
:102AF0000008001000100000001000000000003866
:102B00000044004C0054005C0040004000380000CD
:102B1000000000100028002800280028007C004445
:102B200000440000000000780044004400780044A5
:102B300000440044007800000000003800440040D9
:102B400000400040004000440038000000000070D9
:102B50000048004400440044004400480070000065
:102B60000000007C00400040007C0040004000402D
:102B7000007C00000000007C004000400078004025
:102B800000400040004000000000003800440040C9
:102B90000040005C00440044003800000000004495
:102BA00000440044007C0044004400440044000011
:102BB000000000380010001000100010001000107D
:102BC00000380000000000040004000400040004B9
:102BD0000004004400380000000000440048005099
:102BE0000060005000480048004400000000004021
:102BF000004000400040004000400040007C0000D9
:102C000000000044006C006C005400440044004488
:102C100000440000000000440064006400540054BC
:102C2000004C004C00440000000000380044004408
:102C300000440044004400440038000000000078D4
:102C40000044004400440078004000400040000080
:102C50000000003800440044004400440044005494
:102C6000003800040000007800440044004400786C
:102C700000480048004400000000003800440040C4
:102C80000030000800040044003800000000007C10
:102C900000100010001000100010001000100000C4
:102CA0000000004400440044004400440044004448
:102CB00000380000000000440044004400280028C0
:102CC00000280010001000000000004400440054E0
:102CD00000540054006C002800280000000000444C
:102CE00000280028001000100028002800440000E0
:102CF00000000044004400280028001000100010CC
:102D0000001000000000007C00040008001000100B
:102D100000200040007C000000000018001000109F
:102D2000001000100010001000100010001800200B
:102D30000020001000100010001000080008000023
:102D400000000030001000100010001000100010F3
:102D5000001000100030001000280028004400007F
:102D60000000000000000000000000000000000063
:102D700000000000000000000000000000FE002035
:102D80000010000000000000000000000000000033
:102D900000000000000000380044003C0044004CEB
:102DA000003400000000004000400058006400446F
:102DB00000440064005800000000000000000038DB
:102DC00000440040004000440038000000000004BF
:102DD00000040034004C00440044004C0034000067
:102DE00000000000000000380044007C0040004467
:102DF000003800000000000C0010007C00100010E3
:102E0000001000100010000000000000000000345E
:102E1000004C00440044004C0034000400780040A2
:102E20000040005800640044004400440044000096
:102E300000000010000000700010001000100010D2
:102E400000100000000000100000007000100010D2
:102E5000001000100010001000E00040004000488A
:102E60000050006000500048004400000000007066
:102E700000100010001000100010001000100000E2
:102E8000000000000000007800540054005400547A
:102E900000540000000000000000005800640044DE
:102EA000004400440044000000000000000000381E
:102EB00000440044004400440038000000000000CA
:102EC00000000058006400440044006400580040C2
:102ED0000040000000000034004C00440044004C5E
:102EE00000340004000400000000005800640040AA
:102EF00000400040004000000000000000000038DA
:102F000000440030000800440038000000000020A9
:102F10000020007800200020002000200018000081
:102F20000000000000000044004400440044004C45
:102F300000340000000000000000004400440028AD
:102F400000280028001000000000000000000054CD
:102F500000540054006C002800280000000000000D
:102F60000000004400280010001000280044000069
:102F70000000000000000044004400280028001069
:102F800000100010006000000000007C000800102D
:102F900000200040007C000000000018001000101D
:102FA0000010002000200010001000100018001079
:102FB0000010001000100010001000100010001091
:102FC0000010003000100010001000080008001071
:102FD0000010001000300000000000000074004CE1
:102FE00000000000000000000000000000000000E1
:102FF00000000000000000000000000000000000D1
:1030000000000000000000000000000000000000C0
:10301000000C000C000C000C000C000C000C000C50
:10302000000C000C000C0000000C000C0000000064
:1030300000000000001B001B001B001B001B000009
:103040000000000000000000000000000000000080
:10305000000000000000000080198019801980190C
:10306000C07FC07F80190033C07FC07F0033003332
:10307000003300330000000000000000001E003F8D
:10308000807580650074003C001E00078005806527
:1030900080658075003F001E0004000400000000F1
:1030A000007000D840D8C0D880D900730006000C4A
:1030B000801BC036C066C046C0068003000000000A
:1030C00000000000001E003F003300330033001EEC
:1030D000000CC03CC066806380618063C03E801C81
:1030E0000000000000000000000C000C000C000CB0
:1030F000000C0000000000000000000000000000C4
:10310000000000000000000000008000000100033B
:10311000000600060004000C000C000C000C000C63
:10312000000C0004000600060003000180000020DF
:1031300000100018000C000C000400060006000639
:103140000006000600060004000C000C0018001029
:1031500000200000000C002D003F001E0033000086
:10316000000000000000000000000000000000005F
:10317000000000000000000000000000000C000C37
:10318000000C000CC0FFC0FF000C000C000C000C79
:10319000000000000000000000000000000000002F
:1031A000000000000000000000000000000000001F
:1031B00000000000000C000C0004000400080000E7
:1031C00000000000000000000000000000000000FF
:1031D000001E001E000000000000000000000000B3
:1031E00000000000000000000000000000000000DF
:1031F000000000000000000000000000000C000CB7
:1032000000000000000000000003000300030006AF
:10321000000600060006000C000C000C000C001854
:10322000001800180000000000000000001E003F11
:103230000033806180618061806D806D806180611C
:1032400080610033003F001E00000000000000000D
:103250000006000E001E00360026000600060006CE
:10326000000600060006000600060006000000003A
:1032700000000000001E003F8073806180618001BB
:1032800000030006000C001800300060807F807F83
:103290000000000000000000001C003E006300630E
:1032A0000003000E000E0003800180018061807326
:1032B000003F001E00000000000000000006000E9D
:1032C000000E001E001E0016003600360066807FCD
:1032D000807F0006000600060000000000000000DD
:1032E000007F007F006000600060006E007F8063F0
:1032F0008001800180618073003F001E000000009B
:1033000000000000001E003F803380610060006EFE
:10331000007F80738061806180618033003F001E88
:103320000000000000000000807F807F800100031B
:10333000000300060006000C000C000C000800183A
:10334000001800180000000000000000001E003FF0
:103350008063806180610021001E003F8061806188
:1033600080618061003F001E00000000000000003E
:10337000001E003F00738061806180618073803F28
:10338000801D800180610073003F001E000000006E
:10339000000000000000000000000000000C000C15
:1033A000000000000000000000000000000C000C05
:1033B000000000000000000000000000000000000D
:1033C0000000000C000C00000000000000000000E5
:1033D000000C000C000400040008000000000000C5
:1033E000000080008003000E003800600038000EEE
:1033F00080038000000000000000000000000000CA
:103400000000000000000000807F807F00000000BE
:10341000807F807F000000000000000000000000AE
:103420000000000000000000000000400070001CD0
:10343000000780010007001C007000400000000031
:103440000000000000000000001F803FC071C0604D
:10345000C000C00180030007000E000C000C00003B
:10346000000C000C0000000000000000001E003FE7
:10347000803180718063806F806D806D806F806728
:1034800000600032003E001C000000000000000050
:10349000000E000E001B001B001B001B8031803142
:1034A000803F803F8031C060C060C060000000008D
:1034B00000000000007C007E006300630063006386
:1034C000007E007E0063806180618063007F007EFB
:1034D0000000000000000000001E003F80318061FD
:1034E000006000600060006000600060806180310A
:1034F000003F001E0000000000000000007C007F74
:10350000006380638061806180618061806180612F
:1035100000630063007E007C0000000000000000EB
:10352000807F807F0060006000600060007F007F1F
:103530000060006000600060807F807F000000000D
:1035400000000000807F807F0060006000600060FD
:10355000007F007F0060006000600060006000602D
:103560000000000000000000001E003F803180616C
:1035700000600060006080638063806180618031F2
:10358000803F001E0000000000000000806180619C
:103590008061806180618061807F807F80618061E7
:1035A0008061806180618061000000000000000097
:1035B000003F003F000C000C000C000C000C000C45
:1035C000000C000C000C000C003F003F000000004D
:1035D00000000000800180018001800180018001E5
:1035E000800180018001806180618073003F001E46
:1035F0000000000000000000C06080610063006601
:103600000066006C0078007C0066006600638061E4
:103610008061C060000000000000000000600060E9
:10362000006000600060006000600060006000609A
:1036300000600060807F807F0000000000000000CC
:10364000C071C071C07BC07AC06AC06AC06EC064FD
:10365000C060C060C060C060C060C06000000000AA
:103660000000000080718071807980798079806DA0
:10367000806D806D80658067806780678063806310
:103680000000000000000000001E003F00338061C9
:1036900080618061806180618061806180610033D0
:1036A000003F001E0000000000000000007E007FC0
:1036B00080638061806180618063007F007E006044
:1036C000006000600060006000000000000000007A
:1036D000001E003F003380618061806180618061F5
:1036E0008061806580670033803F401E00000000DD
:1036F00000000000007E007F806380618061806345
:10370000007F007E00660063006380618061C060AE
:103710000000000000000000000E001F803180311A
:1037200000300038001E0007800380618061803116
:10373000003F001E0000000000000000C0FFC0FFAE
:10374000000C000C000C000C000C000C000C000C19
:10375000000C000C000C000C000000000000000039
:103760008061806180618061806180618061806151
:103770008061806180618073003F001E0000000056
:1037800000000000C060C060C060803180318031C6
:10379000001B001B001B001B000E000E000E00048F
:1037A0000000000000000000C0C0C0C0C0C0C0C019
:1037B000C0C0C0CC804C804C805E805280528073F0
:1037C000806180610000000000000000C0C08060D7
:1037D00080610033003B001E000C000C001E001F27
:1037E000003B80718061C0C000000000000000004C
:1037F000C0C08061806100330033001E001E000CD9
:10380000000C000C000C000C000C000C0000000070
:1038100000000000803F803F80010003000300069D
:10382000000C000C0018001800300060807F807FC2
:10383000000000000000000F000F000C000C000C46
:10384000000C000C000C000C000C000C000C000C18
:10385000000C000C000C000F000F000000180018F6
:103860000018000C000C000C000C000600060006FE
:103870000006000300030003000000000000001E1B
:10388000001E0006000600060006000600060006F0
:103890000006000600060006000600060006001EE0
:1038A000001E0000000C000C001E0012003300334C
:1038B0008061806100000000000000000000000046
:1038C00000000000000000000000000000000000F8
:1038D00000000000000000000000000000000000E8
:1038E000000000000000E0FF0000000000380018A9
:1038F000000C0000000000000000000000000000BC
:1039000000000000000000000000000000000000B7
:103910000000000000000000001F803F8061800167
:10392000801F803F80618063807FC038000000007E
:10393000000000000060006000600060006E007F1A
:10394000807380618061806180618073007F006E20
:103950000000000000000000000000000000000067
:10396000001E003F80738061006000608061807392
:10397000003F001E000000000000000080018001E8
:1039800080018001801D803F807380618061806143
:1039900080618073803F801D0000000000000000F7
:1039A0000000000000000000001E003F0073806166
:1039B000807F807F00608071003F001E000000005B
:1039C00000000000C007C00F000C000C807F807F4B
:1039D000000C000C000C000C000C000C000C000C87
:1039E0000000000000000000000000000000801D3A
:1039F000803F807380618061806180618073803FDF
:103A0000801D80018063007F003E00000060006038
:103A100000600060006F807F8071806180618061E4
:103A20008061806180618061000000000000000012
:103A30000006000600000000003E003E00060006F2
:103A40000006000600060006000600060000000052
:103A500000000006000600000000003E003E0006D8
:103A60000006000600060006000600060006000626
:103A70000046007E003C00000060006000600060C6
:103A8000806100630066006C007C00760063006368
:103A90008061C0600000000000000000003E003EA9
:103AA00000060006000600060006000600060006E6
:103AB00000060006000600060000000000000000EE
:103AC000000000000000000080DDC0FFC0CEC0CCC0
:103AD000C0CCC0CCC0CCC0CCC0CCC0CC000000009E
:103AE000000000000000000000000000006F807F68
:103AF00080718061806180618061806180618061AE
:103B000000000000000000000000000000000000B5
:103B1000001E003F807380618061806180618073DE
:103B2000003F001E00000000000000000000000038
:103B30000000006E007F8073806180618061806121
:103B40008073007F006E0060006000600060000015
:103B5000000000000000801D803F80738061806154
:103B6000806180618073803F801D800180018001C1
:103B70008001000000000000000000000067803F9E
:103B800000390030003000300030003000300030AC
:103B90000000000000000000000000000000000025
:103BA000001E803F80610060007F803F8001806157
:103BB000007F001E00000000000000000000000860
:103BC00000180018007F007F001800180018001867
:103BD00000180018801F800F000000000000000087
:103BE0000000000000000000806180618061806151
:103BF0008061806180618063807F803D0000000083
:103C0000000000000000000000000000C0608031E3
:103C100080318031001B001B001B000E000E0006CF
:103C20000000000000000000000000000000000094
:103C300080DD80DD80DD0055005500550077007780
:103C40000022002200000000000000000000000030
:103C500000000000806100330033001E000C000CE7
:103C6000001E0033003380610000000000000000EF
:103C7000000000000000806180618031003300336B
:103C8000001B001B001B000E000E000E001C007C21
:103C9000007000000000000000000000C07FC07F36
:103CA000800100030006000C00180030C07FC07FB8
:103CB00000000000000080038007000600060006E8
:103CC00000060006000E001C001C000E0006000688
:103CD00000060006000680078003000600060006B6
:103CE00000060006000600060006000600060006A4
:103CF0000006000600060006000600060006003862
:103D0000003C000C000C000C000C000C000E000726
:103D10000007000E000C000C000C000C000C003C16
:103D2000003800000000000000000000000000005B
:103D30008038807F00470000000000000000000085
:103D40000000000000000F0180961180FFB1030108
:103D50002C2DB203012C2DB306012C2D012C2DB4DA
:103D60000107C003A20284C101C5C2020A00C30246
:103D70008A2AC4028AEEC5010E20003601A03A014B
:103D800005022A040000004F2B040000009F2100C0
:103D900004E010021C07123732292D29252B390087
:103DA000010310E110031D07062E2C292D2E2E379E
:103DB0003F0000021013800A2980640002400000C6
:103DC000000000A00000000005400000000000C846
:103DD000000000000C4000000000409C00000000BB
:103DE000194000000020BCBE00000000344000006C
:103DF000BFC91B8E00000004B5400000504BCFD05F
:103E00006607E2CF010000006C4100003E8251AA2B
:103E1000DFEEA73401000000D9420000DCB5A0E2CB
:103E20003A301F97FFFFFFFFB4450000FD25A0C8F3
:103E3000E9A3C14FFFFFFFFFFF3F0000000000802C
:103E400000000000FF3F00000000008000000000B4
:103E50008C3E00080000002020000000280100081F
:103E6000AC3E000820000020B80600004401000815
:103E70001C00000043000000F8FFFFFF0C000000E2
:103E80000E0000000F0000002E00000001000000E6
:103E900010000000000000000024F400070A0000E9
:0C3EA0007E2800080B120000EA2F00082A
:04000005080000ED02
:00000001FF
