:020000040800F2
:100000009809002025030008233D0008BD3A000898
:10001000213D0008BB1D0008814D000800000000C4
:10002000000000000000000000000000CD430008B8
:100030002D1E000800000000253D0008CF430008E9
:100040003F0300083F0300083F0300083F03000888
:100050003F0300083F0300083F0300083F03000878
:100060003F0300083F0300083F030008BD1D0008D0
:100070003F0300083F0300083F0300083F03000858
:100080003F030008000000003F0300083F03000892
:100090003F0300083F0300083F0300083F03000838
:1000A0003F0300083F0300083F0300083F03000828
:1000B0003F0300083F0300083F0300083F03000818
:1000C0003F0300083F0300083F0300083F03000808
:1000D0003F030008754D00083F0300083F03000878
:1000E0003F0300083F0300083F0300083F030008E8
:1000F0003F0300083F0300083F0300080000000022
:10010000000000003F030008000000003F0300085B
:100110003F030008000000003F0300083F03000801
:100120003F0300083F0300083F0300083F030008A7
:100130003F03000800000000000000003F0300082B
:100140003F0300083F03000800000000000000001B
:10015000000000000000000000000000000000009F
:100160000000000000000000000000003F03000845
:100170003F03000800000000000000000000000035
:10018000000000003F030008000000000000000025
:10019000000000000000000000000000000000005F
:1001A00000000000000000003F0300083F030008BB
:1001B0003F0300083F0300083F0300080000000061
:1001C000000000003F0300080000000000000000E5
:1001D0003F0300083F03000800F002F800F092F827
:1001E0000AA090E8000C82448344AAF10107DA4592
:1001F00001D100F087F8AFF2090EBAE80F0013F052
:10020000010F18BFFB1A43F001031847B05C000050
:10021000D05C0000103A24BF78C878C1FAD85207E1
:1002200024BF30C830C144BF04680C607047000070
:100230000023002400250026103A28BF78C1FBD8EF
:10024000520728BF30C148BF0B6070476E2900F0CD
:10025000E382702900F03D86662904F0D98665297D
:1002600004F0D686672904F0D386612904F0D2868B
:1002700003681B0A28BF41F08001692900F09082C1
:10028000642900F08D82752900F08A826F2900F0C0
:10029000CA85782900F00986E92900F06585E429F6
:1002A00000F06285F52900F05F85EF2900F0C78531
:1002B000F82900F008860368DB0928BF41F08001B7
:1002C000632901F07B80732901F08080E32901F02C
:1002D0008B80F32901F09080002070471FB504F057
:1002E00092FE00F001FE04000020002104F0FEFD5B
:1002F000401C60600020002104F0E2FDE0601FBDB2
:1003000010B510BD01F012F91146FFF7E7FF04F038
:10031000A9FD01F039F903B4FFF7F2FF03BC01F0C6
:100320007DF900000948804709480047FEE7FEE7DD
:10033000FEE7FEE7FEE7FEE7FEE7FEE7FEE7FEE795
:1003400004480549054A064B704700003944000837
:10035000D901000898030020980900209805002082
:100360009805002053EA020C00F069802DE9F04B5B
:100370004FF00006002B1FBFB3FA83F503FA05F414
:1003800024FA05F65E4012BF1643B2FA82F502FA6D
:1003900005F4C5F120051EBF22FA05FC44EA0C0451
:1003A000203556EA044C4FEA144418BF641C4FF041
:1003B00000084FF00009904271EB030C39D300297B
:1003C00019BFB1FA81F701FA07F6B0FA80F700FA1F
:1003D00007F6C7F120071EBF20FA07FC46EA0C0605
:1003E0002037B6FBF4FCA7EB0507103F07F01F0B07
:1003F000CBF120060CFA0BFB2CFA06F644BFB346F1
:100400000026202FA4BF5E464FF0000B5BEA060CCF
:1004100008BF4FF0010B19EB0B09ABFB027C48EB5B
:100420000608C01B06FB02CC0BFB03CC71EB0C01D6
:10043000C1E70B46024641464846BDE8F08B13B57E
:100440004FF000004FF00001AFF30080BDE81C400A
:10045000704700007CB51D4616460C00009001D088
:100460002044401E074B7B442A4669460190304693
:1004700000F0FBFB05461CB10020694600F008FCBB
:1004800028467CBD310800000FB47CB50C0009AAD9
:10049000009001D02044401E084B7B4469460190E7
:1004A000089800F0E2FB05461CB10020694600F008
:1004B000EFFB28467CBC5DF814FB0000FD07000044
:1004C0002DE9F05F894604464FF0000ADFF874B169
:1004D000FB44C0F820A02046E1688847002874D07B
:1004E000252806D0D4E901219047206A401C2062CB
:1004F000F1E700265F462046E16888472028054648
:1005000007DB312D05D2781910F8200C08B106430D
:10051000F1E7B00701D526F00406C4F81CA00027B7
:10052000C4F818A02A2D09D0284604F052FC38B38C
:1005300004EB8708303DC8F8185019E059F8041B3F
:10054000204604EB87029161E1688847012F054648
:1005500018D1E069002820DA26F020061DE0D8F83E
:10056000180000EB800005EB40003038C8F8180098
:100570002046E1688847054604F02BFC0028EED1B0
:10058000012F0AD02E2D08D12046E16888477F1C14
:100590000546022F46F02006C4DBA069002803DAD6
:1005A000404246F00106A061F00701D026F0100697
:1005B0006C2D0BD0682D09D04C2D39D06A2D35D03B
:1005C000742D35D07A2D33D016E038E0E1682F460F
:1005D00020468847B842054609D16C2F26D04FF4F3
:1005E0008060E168064320468847054604E06C2F9A
:1005F0001AD04FF4807006430DB3A5F141001928BD
:1006000002D8203546F400664A4629462046266030
:100610004E46FFF71BFE80B101280BD0F61D26F0D9
:10062000070000F1080956E74020E4E78020D8E7FA
:100630000020D6E706F104094DE7284652E7206A74
:10064000BDE8F09FE858000010B5431C02E010F828
:10065000011B71B18107FAD14FF0013202C88C1A27
:100660008C4314EAC211F9D0C01A0A0603D0C01E86
:1006700010BDC01A10BD0A0401D0801E10BD0902B1
:10068000FCD0401E10BD4FF0000200B5134694464A
:100690009646203922BFA0E80C50A0E80C50B1F1DA
:1006A0002001BFF4F7AF090728BFA0E80C5048BFEE
:1006B0000CC05DF804EB890028BF40F8042B08BF8C
:1006C000704748BF20F8022B11F0804F18BF00F888
:1006D000012B704770477047704770B504468569B5
:1006E0000068C10601D5302600E02026C00707D0EB
:1006F00070BDD4E9012130469047206A401C206239
:100700006D1EF6D570BD70B5044685690078C007CA
:1007100007D170BDD4E9012120209047206A401CF8
:1007200020626D1EF6D570BD09684A0501D540B23C
:100730007047C905FCD500B2704709684A0501D564
:10074000C0B27047C905FCD580B2704770B50C4681
:100750000546012A05D02878800600D5EA690023DD
:1007600002E0012305E05B1C934202D2E05C00281A
:10077000F9D1A869E618C01AA861286A1844286245
:100780002846FFF7AAFF04E0D5E9012114F8010B80
:100790009047B442F8D32846FFF7B5FF70BD00007C
:1007A0002DE9F0410646002410687529314616A54A
:1007B00010D0FFF7B9FF002802DA404213A507E086
:1007C00031688A0701D512A502E0490704D511A5B1
:1007D000012401E0FFF7B1FF00210A2206F12407FE
:1007E00009E0B0FBF2FCB0FBF2F302FB1C0030307E
:1007F00078541846491C0028F3D123462A4630462F
:10080000BDE8F04100F0B9BB000000002D00000081
:100810002B0000002000000011680268006A5305E8
:1008200001D508700AE0D30501D5088006E013065B
:1008300003D5C217C1E9000200E00860012070473B
:1008400070472DE9FF4F0C461E464FF0FF378BB027
:10085000D2E90001DDF860800A908A46C1F30A55AA
:1008600005B93D46002108464FF00000BAF1000FDF
:1008700000F4400005DA00EB80004FF4400101EA8B
:1008800050004FEA9059B9F1010F00DDB9460A98BE
:1008900050EA4A000ED044F61050A5F2FF35454309
:1008A0002F14B8F1000F1ED07542291E1EDDC9F1AC
:1008B00000021CE0B8F1010F4FF0000001D0302120
:1008C00003E0F24305E02154401CB042FBDB30461C
:1008D0000022002121540B99C1F80880C1E90020B1
:1008E0000FB0BDE8F08FBD1B6D1CDEE74A4600DA95
:1008F000694206A800F084FD06AB93E8070003AB4D
:1009000083E8070050460A9900F08FFE8DE8070043
:10091000A0F500501F3800900398002D0ADD42F228
:100920001F014A460844002303A90390684601F0CA
:10093000F8F809E0A0F500504A461F38002303A943
:100940000390684601F002F98DE807000004000CEE
:1009500003D04FF0FF30410800E01046B8F1000F1F
:1009600003D00022009215461EE0751E05D400F04B
:10097000BFFA303262556D1EF9D5B34601220843E5
:1009800002D000227F1C04E02078302801D1002210
:100990007F1E002A099784D01DE0112D07DA00F090
:1009A000A7FA303262556D1C50EA0102F5D10843B6
:1009B00002D00098C8B10EE00021681E05E0235C5B
:1009C000625C63542254401E491C8142F7DBAB46F3
:1009D000A81B401E0990002004F80B000B98099AF0
:1009E000C0F80880C0E9002B7AE711264FF0000814
:1009F00057E72DE9F04F88460446D21D22F0070143
:100A000091B0D1E90001CDE90A0104F0BAF902463A
:100A10000B98C00F01D02D2007E02068810701D579
:100A20002B2002E0202101EAC000032A099001D016
:100A3000072A05DB03464146204600F075FC0BE122
:100A40002078800601D5E06900E00620B8F1650F46
:100A5000814606D0B8F1660F18D0B8F1670F70D193
:100A600031E00020B9F1110F009001DB112301E00A
:100A700009F101030AAA01A90CA8FFF7E2FEDDE9CA
:100A80000C70002609F10105834647E001204B4622
:100A900000904FF000470AAA01A90CA8FFF7D1FE69
:100AA000DDE90DB00C995D46002610B909F1010091
:100AB0000D18B9EB050003D4C0F1FF3609F10105AB
:100AC000A5EB09002BE0B9F1010F01DA4FF00109A4
:100AD0000020B9F1110F0090484601DD112300E01C
:100AE00003460AAA01A90CA8FFF7ABFEDDE90C70CA
:100AF0004D4600268346207800070AD4AB4500DA2D
:100B00005D4601A8012D04DD411911F8011C3029B1
:100B100007D04F4502DA17F1040F04DA01208246AC
:100B20000FE06D1EEEE7002F02DCED1B3E4403E0FC
:100B3000781CA84200DD7D1CB81B00F1010A4FF0B3
:100B400000472078000703D4AA4501DB4FF0FF3AA5
:100B50000021B7F1004F0DF143088DF8431024D068
:100B600002202B23002F01DA7F422D230A21021EAF
:100B7000A0F1010000DC5FB197FBF1FC97FBF1F203
:100B800001FB1C7C17460CF1300C08F801CDEEE798
:100B9000A8F1010003702188090501D5452100E075
:100BA0006521A0F1010800F8011C09980FA9A1EB2B
:100BB0000807FF1D00B10120411901EBEA70A1698E
:100BC0003844081A401EA0612078C00602D420468E
:100BD000FFF783FD099828B1D4E901219047206AE5
:100BE000401C20622078C00622D52046FFF775FD04
:100BF0001EE0002E04DBB34502DD01A8805D00E0AD
:100C00003020D4E901219047206A401C2062761CE4
:100C1000AAF101005FEA000A0AD100F065F9C06894
:100C20000168405CD4E901219047206A401C2062A1
:100C3000281EA5F10105DCDC07E0D4E9012118F844
:100C4000010B9047206A401C2062381EA7F1010763
:100C5000F3DC2046FFF757FD032011B041E600000A
:100C600001694A1C02610878704700B58FB0CDE970
:100C700001310021059105497944CDE90310114660
:100C80006846FFF71DFC0FB000BD0000E5FFFFFF49
:100C90000A6802F8010B0A607047D1E900239A4202
:100CA00002D2531C0B601070704700002DE9FF5FEB
:100CB00015468A460446DFF8AC80F8440027D8E998
:100CC00000103E46CDE9001010E03AF816106A46D2
:100CD00002A800F007FC411C07D02178890603D543
:100CE000E269391891420DD80744761C20788006B5
:100CF00002D5E069B84205DDAE42E6DB3AF81600FF
:100D00000028E2D1A069C01BA0612046FFF7E5FCE6
:100D1000D8E90010CDE90010002017E03AF81810CB
:100D20006A4602A800F0DEFBB0F1FF3F81460BD01F
:100D300000250DF1080B05E0D4E901211BF80500A1
:100D400090476D1C4D45F7D308F10100B042804635
:100D5000E4DB206A384420622046FFF7D4FCBDE87B
:100D6000FF9F0000125100002DE9F0418046D21D86
:100D700022F007020025D2E90002F52915A614D0B9
:100D8000011E72F1000106DA0023D0EB030063EBD1
:100D9000020211A608E0D8F800108B0701D50FA6B3
:100DA00002E0490701D50EA601251146002408F1ED
:100DB000240704E000F09CF830323A55641C50EAF5
:100DC0000102F7D12B46324621464046BDE8F041AC
:100DD00000F0D3B8000000002D0000002B00000040
:100DE0002000000030B4002100F1240408E002F0EB
:100DF0000705D208303542EA4372DB086554491CC6
:100E000052EA0305F3D10468002310A2250707D591
:100E1000A40600D421B1C46901230DA2641EC461DB
:100E200030BC00F0AAB810B5044621461068FFF7A0
:100E300084FC02462046BDE810400023D2E7D21DC4
:100E400022F00701D1E90023CCE7000000000000F8
:100E500030000000F0B40D460188090502D5214C90
:100E60007C4402E01F4C7C440E34002100F1240637
:100E700008E002F00F071209E75D42EA03721B095E
:100E80007754491C52EA0307F3D102780023120772
:100E900004D5702D06D009B1022311342246F0BCCE
:100EA00000F06BB801231034F8E770B504460D4626
:100EB00021461068FFF741FC024629462046BDE85E
:100EC00070400023C6E7D21D22F00703D3E90023B8
:100ED000C0E70368126843F0200303600823C3617E
:100EE0000023B7E7744F0000004870475803002004
:100EF00030B5B0F10A024FEA900E71F100034EEAEC
:100F0000817EB0EB0E0061EB91014FEA101E4EEABC
:100F1000017E10EB0E0041EB11114FEA102E4EEA4C
:100F2000016E10EB0E0041EB11214FEA104E4EEA1C
:100F3000014E10EB0E0041EB1141401841F1000150
:100F40004FEAD00040EA41704FEAD10110EB800532
:100F50004FEA810444EA907444EB01046D1944EBB8
:100F60000404521BA3414FF0000348BF0A3200D5CE
:100F700030BD401C41F1000130BD2DE9F0470D4668
:100F800099469246044600F124080168880604D573
:100F9000E06921F01001216000E00120A84201DD9C
:100FA000471B00E00027A1697A1902EB0900081A23
:100FB000A0612078C00602D42046FFF78EFB0026F1
:100FC00008E0D4E901211AF806009047206A401C85
:100FD000761C20624E45F4DB2078C0060AD52046F8
:100FE000FFF77BFB06E0D4E9012130209047206A1F
:100FF000401C2062381EA7F10107F4DC07E0D4E9A9
:10100000012118F805009047206A401C2062281E24
:10101000A5F10105F3DC2046FFF775FB20780006FB
:1010200002D50220BDE8F0870120FBE72DE9F04F53
:1010300004460D46D21D22F0070089B0D0E9009782
:101040004846394603F09DFE0246F80F01D02D2395
:1010500007E02068810701D52B2302E0202101EA67
:10106000C0038DF820300BB1012000E00020032ADE
:10107000824601D0072A04DB2946204600F054F9B5
:101080003FE12078800601D40D2500E0E569C7F333
:101090000A560D2D49DA00214FEA175B08464FF03A
:1010A0000000002F00F4400007DA00EB80004FF44E
:1010B000400100EBD07001EA60008115012901DDDB
:1010C0004FF0FF3100224FEA850CBCF1180F06D318
:1010D0001346ACF118004FF08052C24003E04FF4C9
:1010E000801323FA0CF30CF10C0CBCF1200F04D389
:1010F000ACF1200C09FA0CF001E007FA0CF0002921
:101100004FF0004801DD18B90FE00ED140450CD377
:1011100019EB02095F4121B9404502D19F4329EAF9
:101120000209BBEB175F00D0761C2088000502D5B2
:101130007B48784402E07A487844193808AA30237A
:1011400002F80A30037C0AF10101002E0AF1020ABA
:1011500053546A4602DC4FF0300101E04FF0310198
:101160004FF001088DF8001002D0A6F2FF3603E020
:1011700059EA470100D06B4E002D02DC21780907A7
:1011800004D54FF002082E218DF80110C44600212D
:101190000BE0C7F303433F01C35C491C6D1E02F81B
:1011A0000830052908F1010801DA002DF1DC0021E1
:1011B0000CE000EB1973491C1B786D1E082902F81E
:1011C00008304FEA091908F1010801DA002DF0DCB6
:1011D00021688B0602D516E0A8F10108E04505DD7F
:1011E00002EB080313F8013C302BF5D0B8F1000FE7
:1011F00009DD02EB080313F8013C2E2B03D109078C
:1012000001D4A8F10108002D05DD3E2102F80810E7
:101210006D1E08F10108407C002E02F8080008F15C
:10122000010804DA2D20764202F8080002E02B20A3
:1012300002F808000A214FF47A70864208F101088A
:101240000BDB96FBF0F3303302F8083096FBF0F33B
:1012500008F1010800FB136601E0642E0CDB64203A
:1012600096FBF0F3303302F8083096FBF0F308F108
:10127000010800FB136601E00A2E06DB96FBF1F085
:10128000303002F8080008F1010896FBF1F001FB8C
:101290001060303002F80800A16908F1010808EB7D
:1012A000050202EB0A00081AA0612078C00602D4E9
:1012B0002046FFF712FA216A08AE01EB0A0020620D
:1012C00004E0D4E9012116F8010B9047BAF1010AB4
:1012D000F7D22078C00602D52046FFF7FEF96E4609
:1012E00009E016F8010B3E280FD0D4E90121904700
:1012F000206A401C2062B8F10108F2D22046FFF7B4
:1013000002FA09B00320BDE8F08F206A2844206269
:1013100003E0D4E90121302090476D1EEBD3F8E7BC
:10132000DD4C000002FCFFFF2DE9F0411F460446A2
:1013300003260168072A01F4006004DB08B116A542
:1013400005E016A503E008B115A500E015A521F0FC
:1013500010002060A069C01EA0610FB1401EA061F6
:101360002046FFF7BAF94FB1D4E90121384690473A
:10137000206A401C2062C01C206206E0206AFAE756
:10138000D4E9012115F8010B9047761EF8D22046CA
:10139000FFF7B9F9BDE8F0814E414E006E616E0075
:1013A000494E4600696E660010B5436913B1AFF34C
:1013B000008001E0FFF7CAF9012010BD127800F1AA
:1013C00024010A7000224A700122EDE711684FF0F3
:1013D000FF32E9E710B5436913B1AFF3008001E0D4
:1013E000FFF764FC012010BD128800F12401828403
:1013F0000022C2840122EDE711684FF0FF32E9E7D5
:101400002DE9F047814616468AB0354878440DC824
:101410008DE80D0032487844801C03AC0DC884E888
:101420000D0041F69B300844372190FBF1F290FB10
:10143000F1F5A5F1800501FB12041B3C02D56442C5
:10144000012000E00020DFF898A080460027FA4441
:10145000AAF1BE0A0EE0E0070AD03246684607EB62
:10146000470101230AEB810100F070FB8DE80700C2
:1014700064107F1C002CEED1194F7F44AE3F19E061
:10148000E80715D007EB04100DF1180A90E80E00DC
:101490008AE80E00C068F04201D1981908903246DF
:1014A000012306A903A800F051FB03AB83E8070062
:1014B0006D10641C002DE3D14FF0010332466946E4
:1014C000B8F1000F03A802D000F02BFB01E000F000
:1014D0003DFBC9E90001C9F808200AB0BDE8F08762
:1014E000944A000070B516460C46054600F044F8D4
:1014F000036893F80101012806D0FF2C0FD8185D6E
:1015000068B101202C7070BDD3F807013246214626
:1015100003F2071303442846BDE8704018474FF014
:10152000FF3070BD00487047380300207546FFF754
:10153000F9FFAE4605006946534620F00700854690
:1015400018B020B5FEF7FCFEBDE820404FF00006C5
:101550004FF000074FF000084FF0000B21F007019B
:10156000AC46ACE8C009ACE8C009ACE8C009ACE8DE
:10157000C0098D467047000010B5FFF7B5FC001D8F
:1015800010BD00BF6939000010B50446AFF30080FC
:101590002046BDE81040FEF7BEBE00004FF0013C03
:1015A00050F8042B51F8043B9A4221D1A2EB0C03D2
:1015B000934313EACC1317D150F8042B51F8043B92
:1015C0009A4215D1A2EB0C03934313EACC130BD12F
:1015D00050F8042B51F8043B9A4209D1A2EB0C03BA
:1015E000934313EACC13DBD04FF00000704700BFE9
:1015F000D01A01BAB1FA81F101F0180122FA01F012
:10160000CB40C1F12001DBB2C0B2C01A2CFA01F309
:10161000D11A914311EAC311E6D17047014918204C
:10162000ABBEFEE72600020070475FEA400C08BF31
:1016300091F0000F4FEA8C234FEAC12243EA515147
:101640004FEA1C5018BF00F5F0404FEA300018BFB9
:1016500041F000415FEA6C5C00F02980BCF1FF3F83
:1016600008BF40F080407047130C06BF12044FF0D3
:10167000100C4FF0000C130E04BF12020CF1080CFA
:10168000130F04BF12010CF1040C930F04BF92005E
:101690000CF1020CD30F04BF52000CF1010C1146E7
:1016A0004FF00002A0F11F00A0EB0C00704711F0FA
:1016B000004F08BF704731F000413FF4D5AF0B0C2D
:1016C00006BF09044FF0100C4FF0000C0B0E04BFC6
:1016D00009020CF1080C0B0F04BF09010CF1040CFA
:1016E0008B0F04BF89000CF1020CCB0F04BF490023
:1016F0000CF1010CCCF12003A0EB0C0022FA03F357
:1017000002FA0CF241EA030100F10100704720F0F7
:101710007F4C80EA030023F07F47ACEB070303F51F
:101720007C5300F0004003F1FF032DE980494FEAAC
:10173000154B09B44FEA144325EA0B4E24EA03483B
:101740000FF2042606EB132749083E785FEA3202BF
:1017500003FB0667C7F5000707FB06F64FEA543799
:101760004FEAD64606F1020607FB066CCCF1005C98
:101770004FEA1C472CEA074C07FB06F40CFB06F566
:1017800004EB15464FEA961634BF00204FF0004098
:101790004FEAD13706FB07FC4FEA1C4C0CFB0BF75A
:1017A000D21B03FB0CF761EB07010CFB0EF7B0EB50
:1017B000074072EB17420CFB08F734BFA2EB07425D
:1017C000B2EB074261EB17414FEA0C444FEA910735
:1017D00006FB07FC4FEA1C4C0CFB0BF7B0EBC740B9
:1017E00072EB573203FB0CF734BFA2EBC742B2EBEC
:1017F000C74261EB57310CFB0EF7B0EBC70072EB41
:1018000057720CFB08F734BFA2EBC702B2EBC7025A
:1018100061EB5771039F4FEA816141EA921104EB3A
:10182000CC044FEAD1374FEA826206FB07FC42EA5A
:1018300090124FEA80604FEA1C4C0CFB0BF7D21B56
:1018400003FB0CF761EB07010CFB0EF7B0EB074055
:1018500072EB17420CFB08F734BFA2EB0742B2EB66
:10186000074261EB17414FEA8C554FEA910704EBB1
:101870009C2406FB07FC4FEA1C4C0CFB0BF7B0EB5F
:10188000C74072EB573203FB0CF734BFA2EBC742E1
:10189000B2EBC74261EB57310CFB0EF7B0EBC70060
:1018A00072EB57720CFB08F734BFA2EBC702B2EB26
:1018B000C70261EB577115EB4C254FEA816141EA94
:1018C00092114FEA82624FEAD13742EA901206FB48
:1018D00007FC44F100044FEA80604FEA1C4C0CFB0B
:1018E0000BF7D21B03FB0CF761EB07010CFB0EF7A8
:1018F000B0EB074072EB17420CFB08F734BFA2EBCA
:101900000742B2EB074261EB174115EB1C154FEA9A
:10191000813141EA92414FEA823242EA90424FEAF3
:1019200080304FEA0C7644F1000448EA03434EEA63
:101930000B484FF0000EB2EB080C71EB030724BF0D
:10194000624639464EEB0E0E4FF0000B0018524126
:1019500049414BEB0B0BB2EB080C71EB03077BF12E
:10196000000B24BF624639464EEB0E0E4FF0000BC3
:101970000018524149414BEB0B0BB2EB080C71EBD9
:1019800003077BF1000B24BF624639464EEB0E0E77
:1019900051EA020718BF46F0010616EB0E7655F124
:1019A000000254F1000103D5BDE88901BDE80088BB
:1019B000BDE88901BDE80048B619524141EB01017B
:1019C000A3F10103704780807F7E7D7C7B7A7978EC
:1019D000777676757473727171706F6E6E6D6C6CF4
:1019E0006B6A6A6968686766666564646363626196
:1019F0006160605F5F5E5E5D5D5C5C5B5B5A5A5917
:101A00005958585757565655555554545353525282
:101A10005251515050504F4F4F4E4E4D4D4D4C4CDA
:101A20004C4B4B4B4A4A4A49494948484847474723
:101A30004746464645454544444444434343434260
:101A4000424242414141002B9C4630D477002BD08A
:101A50001CB54FEA370703B44FF010004FF01001E8
:101A6000BAF1000F06D0BCF1000FDCBF40F0080057
:101A700040F008014FF000000FBCBDE810400BF132
:101A8000010BBBF1010F08BF5FEA170722BF12F17C
:101A9000010211F101014FF0004143F1000300F098
:101AA000004043EA00007047F9D35708D0E746EA00
:101AB000064613F1400F4FEA16461FDD13F1200FC3
:101AC000DFBF16430A46002120335B42BED0C3F17C
:101AD000200746EA064602FA07F74FEA164646EAA4
:101AE0000706C3F1200722FA03F201FA07F721FAE9
:101AF00003F14FF0000342EA0702A7E746EA0206B5
:101B000046EA06464FEA164646EA0106BCBF46EAE2
:101B10000646360C4FF000034FF000024FF0000174
:101B200094E72DE9804C9A46934670B491E83800CA
:101B300007C831EA400C48BF34EA430C03D5FFF72D
:101B4000E6FDFFF780FFF0BCBDE8008C2DE9804C7E
:101B50009A46934670B491E8380007C810F0804F59
:101B600008BF13F0804F03D100F005F8FFF76BFFBB
:101B7000F0BCBDE8008C20F07F4780EA030023F032
:101B80007F4C07EB0C03A3F57C5300F00040A3F15E
:101B9000FE0392F0000F00F0B38095F0000F00F00C
:101BA00077802DE901494FEA11404FEA144621EAB6
:101BB000004800FB06FC24EA064708FB06F607FB84
:101BC00008F800FB07F718EB06484CEB164C4FEAF9
:101BD000124B18EB07484FEA15464CEB174022EA28
:101BE0000B4E0BFB06FC25EA06470EFB06F607FB31
:101BF0000EFE0BFB07F71EEB064E4CEB164C4FF0A0
:101C000000061EEB074E4CEB174B18EB0B0840F190
:101C1000000018EB0E0B58EB000840F100008F1A83
:101C20004FF000013CBFC943661B14BFB5EB040C69
:101C300000213CBFC943F61B4FEA17444EEA8E0E03
:101C400027EA04454FEA1C4704FB07622CEA074CCD
:101C500005FB07F70CFB05F604FB0CFC16EB07462F
:101C600042EB174216EB0C4642EB1C421BEB0606FE
:101C700058EB0202414146EA9E0601D5BDE80189C2
:101C8000B619524141EB0101A3F10103BDE80189FD
:101C90004FEA14454FEA114724EA054621EA074C6A
:101CA00005FB07F406FB07F70CFB06F105FB0CFC34
:101CB00011EB074144EB17444FEA124711EB0C417B
:101CC00044EB1C4422EA074C05FB07F206FB07F72E
:101CD0000CFB06F605FB0CFC16EB074642EB174225
:101CE00016EB0C4642EB1C456A1854F1000148BF44
:101CF0007047B619524141EB0101A3F1010370474E
:101D000095F0000F37D04FEA11424FEA144721EA0D
:101D1000024624EA074C02FB07F106FB07F70CFB1F
:101D200006F402FB0CFC14EB074441EB17414FEAAD
:101D3000154714EB0C4441EB1C4125EA074C02FB10
:101D400007F506FB07F70CFB06F602FB0CFC16EB8F
:101D5000074645EB174516EB0C4645EB1C4212199E
:101D600051F1000148BF7047B619524141EB0101E2
:101D7000A3F1010370474FEA14454FEA114724EAE3
:101D8000054621EA074C05FB07F106FB07F70CFBAC
:101D900006F24FF0000605FB0CFC12EB074241EB8C
:101DA000174112EB0C4251EB1C4148BF704792188F
:101DB00041EB0101A3F101037047FEE7014800F088
:101DC000A9B80000580100200D4902688A4201D2DA
:101DD0000C4901E00B492031D2B21423083AB2FB7E
:101DE000F3F2436C02F01F0223F0030319448164F1
:101DF00004498031C16401219140016570470000B0
:101E000008040240000802400179074A02EB8102FF
:101E10004265054A4432491E826501F01F020121D4
:101E20009140C16570470000FC080240704772B6DF
:101E3000FEE710B590F8253000210122022B03D0D7
:101E40000421C163012122E003681C6824F00E0410
:101E50001C60836C1C6824F480741C6003681C681C
:101E600024F001041C6090F84430046C03F01F035C
:101E700002FA03F36360D0E913345C60436D33B15D
:101E80001C6824F480741C60D0E916345C6080F80F
:101E90002520002280F82420084610BD70B590F857
:101EA0002520002401212346022A07D00422C263F0
:101EB00080F8251080F82430012429E00268156894
:101EC00025F00E0515600268156825F001051560FE
:101ED000826C156825F48075156090F84420056CB7
:101EE00002F01F0201FA02F26A60D0E91325556080
:101EF000426D32B1156825F480751560D0E916255C
:101F0000556080F8251080F82430816B01B1884736
:101F1000204670BDF0B4016C0C6801680D6890F843
:101F2000442002F01F06042202FA06F3234211D0D5
:101F30006B070FD50B689B0603D40B6823F00403D3
:101F40000B6090F8441001F01F018A40016C4A6058
:101F5000016B1DE0022303FA06F727424FF0000C45
:101F60004FF0010218D0AF0716D50C68A40605D4AF
:101F70000C6824F00A040C6080F8252090F84410C6
:101F800001F01F018B40016C4B6080F824C0C16AD6
:101F900000291AD0F0BC08470823B340234214D0CC
:101FA0002B0712D50B6823F00E030B6090F844103A
:101FB000036C01F01F0102FA01F15960C26380F85D
:101FC000252080F824C0416BE2E7F0BC7047000098
:101FD00070B504000CD02B4A21681420914209D21C
:101FE000294A0A44B2FBF0F08000606427480AE006
:101FF000012070BD234A52420A44B2FBF0F0800037
:102000006064204808382064022084F825000A68AB
:1020100047F6F0708243D4E902031843D4E904354B
:102020002B431843A3691843E3691843236A1843F1
:10203000104308602046FFF7C7FEA0680025B0F5F2
:10204000804F00D16560A16C20790860D4E913014C
:1020500041606068401E032808D82046FFF7D4FE80
:10206000606D0560D4E91601416002E06565A56513
:10207000E565E563012084F8250084F824500020FC
:1020800070BD000008040240F8FFFDBF00000240E0
:1020900070B5044600F038F90546601C02D00448CB
:1020A0004068044400F030F9401BA042FAD370BDF0
:1020B000000000202DE9F04FDFF8209200230126D8
:1020C0000324A9F1040B85B00F2709F1040AABF131
:1020D000040EFAE006FA03F52A407CD091F804C019
:1020E0000CF0030CBCF1010F02D0BCF1020F26D1A1
:1020F000D0F808C0CDF800C04FEA430C04FA0CF841
:10210000CDF810C0DDF800C02CEA080CCDF800C0F6
:10211000D1F80C80DDF810C008FA0CF8DDF800C02A
:1021200048EA0C08C0F80880D0F804C02CEA050C76
:102130000D79C5F300159D4045EA0C0545600D7904
:10214000ED43AD070ED0C5684FEA430804FA08FC1A
:1021500025EA0C05D1F808C00CFA08FC4CEA050C7D
:10216000C0F80CC00D7905F00305022D16D1DD086D
:1021700000EB850CCDF808C0DCF820805D074FEA45
:10218000D56C07FA0CF528EA05080D6905FA0CF577
:10219000DDF808C045EA0805CCF8205005684FEA8C
:1021A000430CCDF808C004FA0CFC25EA0C0591F8A4
:1021B00004C00CF00308DDF808C008FA0CF848EA7F
:1021C0000508C0F800804D6815F4403F7CD0444DB0
:1021D000D5F860C000E077E04CF0010CC5F860C0B5
:1021E0002D6E23F0030C05F0010500953D4D65446F
:1021F0000295AD684FEA837C4FEA1C7807FA08FC29
:1022000025EA0C05B0F1904F06D0DFF8DCC0604540
:1022100005D14FF0010C20E04FF0000C1DE0DFF87D
:10222000CCC0604502D14FF0020C16E0DFF8C0C010
:10223000604502D14FF0030C0FE0DFF8B8C06045F5
:1022400002D14FF0040C08E0DFF8ACC0604502D1C9
:102250004FF0050C01E04FF0060C0CFA08FC4CEABC
:10226000050C029DC5F808C0D9F80050CC46D1F83D
:10227000048095435FEAC82800D51543CCF8005088
:10228000DAF80050D446D1F8048095435FEA8828F4
:1022900000D51543CCF80050DBF80050DC46D1F8EF
:1022A000048095435FEA883800D51543CCF8005088
:1022B000DEF80050F446D1F8048095435FEAC83850
:1022C00000D51543CCF800505B1C0A6832FA03F5C0
:1022D0007FF400AF05B0BDE8F08F000008040140B6
:1022E00000100240000001400004004800080048BF
:1022F000000C004800100048001400480AB1816139
:102300007047816270470000014880687047000094
:1023100000000020024881684268114481607047D3
:102320000000002010B50024032000F073F80F20F7
:1023300000F008F808B1012401E000F025F820467B
:1023400010BD000070B50E4E05460024706898B1AF
:102350004FF47A71B1FBF0F00A490968B1FBF0F073
:1023600000F0E5FE40B9102D06D200222946501E8D
:1023700000F030F8356000E00124204670BD000018
:10238000000000200C0000200A4882B0016E41F0DD
:1023900001010166016E01F001010091816D41F0C2
:1023A00080518165806D00F08050009002B000F097
:1023B000A1B8000000100240002809DB00F01F0255
:1023C000012191404009800000F1E020C0F8001197
:1023D00070470000F0B40E4B1B680C46C3F3022399
:1023E000C3F10705042D00D90425191D072901D2C1
:1023F000002300E0DB1E012606FA05F1491E2140FC
:1024000099409E40761E16403143F0BC02F0D1BC8C
:102410000CED00E0064900F0070208684FF6FF03E4
:10242000184040EA0220034A104308607047000049
:102430000CED00E00000FA052B492C4B0A68322114
:102440004A432B4940B1B0F5007F086829D020F4F9
:10245000C06040F480602CE00868C0F3412002288E
:1024600004D051F8800F20F4807022E0D1F8800071
:1024700020F48070C1F88000086820F4C06040F447
:1024800000700860B2FBF3F0401C00E0401E4A6997
:10249000520501D50028F9D1486940050AD5032025
:1024A0007047C0F34120022806D051F8800F40F455
:1024B0008070086000207047D1F8800040F4807080
:1024C000C1F88000086820F4C06040F40070086023
:1024D000B2FBF3F0401C00E0401E4A695205DBD518
:1024E0000028F9D1D8E700000C00002040420F007E
:1024F000007000400248816841F48041816070476B
:10250000007000402DE9F8430446006800269D4D08
:1025100000035ED5A86D0027C00008D4A86D40F068
:102520008050A865A86D012700F080500090DFF86A
:102530005892D9F8001041F48071C9F80010FFF7E3
:10254000E3FE804606E000BFFFF7DEFEA0EB0800DA
:1025500002282BD8D9F80000C005F5D5D5F8900091
:1025600010F4407014D0216C814211D0D5F8900045
:10257000D5F8901020F4407041F48031C5F89010E7
:10258000D5F8901021F48031C5F89010C5F890006E
:10259000C00711D0FFF7B8FE804641F2883907E046
:1025A000FFF7B2FEA0EB0801494501D903260BE075
:1025B000D5F890008007F3D5D5F89000216C20F471
:1025C00040700843C5F890001FB1A86D20F08050FE
:1025D000A8652078C00707D0D5F88800616820F08A
:1025E00003000843C5F888002078800707D5D5F890
:1025F0008800A16820F00C000843C5F88800207806
:10260000400707D5D5F88800E16820F0300008437E
:10261000C5F888002078000707D5D5F8880021691B
:1026200020F0C0000843C5F888002078800607D550
:10263000D5F88800616920F440600843C5F8880037
:102640002078400607D5D5F88800A16920F44050CD
:102650000843C5F888002078000607D5D5F888001B
:10266000E16920F440400843C5F888002088C0058F
:1026700007D5D5F88800216A20F440300843C5F812
:1026800088002088800507D5D5F88800616A20F485
:1026900040200843C5F88800208840050FD5D5F8AC
:1026A0008800A16A20F440100843C5F88800A06A99
:1026B000B0F5801F03D1E86840F48010E8602088FE
:1026C00000050FD5D5F88800E16A20F440000843E2
:1026D000C5F88800E06AB0F5800F03D1E86840F4DF
:1026E0008010E8602088C0040FD5D5F88800216BE1
:1026F00020F040700843C5F88800206BB0F1807F5F
:1027000003D1E86840F48010E86020884FF0006151
:1027100080040ED5D5F88800626B20F0406010432D
:10272000C5F88800606B884203D1E86840F48010E7
:10273000E860208840040ED5D5F88800A26B20F010
:1027400040601043C5F88800A06B884203D1E86858
:1027500040F48010E860208800040FD5D5F8880088
:10276000E16B20F040500843C5F88800E06BB0F101
:10277000805F03D1E86840F48030E8603046BDE80F
:10278000F883000000100240007000402DE9F0477F
:102790000E4605004FF0000725D0DFF8AC81D8F8D1
:1027A000000000F00F00B0420CD2D8F8001021F069
:1027B0000F013143C8F80010D8F8000000F00F00F6
:1027C000B04210D12968614CC80741F2883A5AD00A
:1027D0006868DFF87C91032808D0022820682DD093
:1027E000400500282CDB0120BDE8F087206880012F
:1027F000F9D5E06800F00302E068C0F30310401C64
:10280000032A19D0534A00BFB2FBF0F0E268C2F3CA
:1028100006225043E268C2F34162521C5200B0FBF0
:10282000F2F0484517D9A06810F0F00F0CD08807D7
:1028300011D5A86840B10EE0474AE5E78003D0E72C
:1028400000F0B6F8484506D9A06820F0F00040F046
:102850008000A0608027A068696820F0030008431A
:10286000A060FFF751FD814606E000BFFFF74CFD79
:10287000A0EB090151453AD8A068696800F00C0046
:10288000B0EB810FF2D12868810714D5400703D53A
:10289000A06840F4E060A0602878000705D5A06833
:1028A00020F4605040F4E060A060A068A96820F0C7
:1028B000F000084304E0802F03D1A06820F0F0006E
:1028C000A060D8F80010404601F00F01B14216D9BF
:1028D000016821F00F0131430160FFF715FD074644
:1028E00007E000BFFFF710FDC11B514501D90320D0
:1028F0007AE7D8F8000000F00F00B042F2D1287853
:10290000400705D5A068E96820F4E0600843A060AE
:102910002878000706D5A068296920F4605040EAAD
:10292000C100A06000F044F8A1680C4AC1F3031193
:10293000515C01F01F01C84009490860094800685E
:10294000BDE8F047FFF7FEBC002002400010024047
:1029500000B4C4040024F40000366E0140500008A6
:102960000C00002000000020054806490068896826
:10297000054AC1F30221515C01F01F01C8407047B4
:102980000C00002000100240505000080548064985
:1029900000688968054AC1F3C221515C01F01F013A
:1029A000C84070470C000020001002405050000842
:1029B000184910B58868C0F381021748012A0BD066
:1029C0008A68164BC2F38102022A06D08A68C2F3D3
:1029D0008102032A03D0002010BD184610BDCA682A
:1029E00002F00304CA68C2F30312521C032C02D083
:1029F000B0FBF2F001E0B3FBF2F0CA68C968C2F3C1
:102A000006225043C1F34161491C4900B0FBF1F07B
:102A100010BD0000001002400024F40000366E01DA
:102A20002DE9F84304007AD02078F84DC00747D04C
:102A3000A868E96800F00C0001F003010C2802D03E
:102A4000082817D001E0032914D06068B0F5803F52
:102A500017D0B0F5A02F286817D020F48030286058
:102A6000286820F4802028606068E0B1FFF74CFC03
:102A7000064614E02868800322D560680028D2D07A
:102A80001EE0286840F48030EDE740F480202860A4
:102A9000F7E700BFFFF738FC801B642870D8286870
:102AA0008003F7D50CE0FFF72FFC064605E000BFDA
:102AB000FFF72AFC801B6428F0D828688003F7D42D
:102AC000207880074CD5A868E96800F00C0001F078
:102AD00003010C2802D004280DD001E002290AD0FD
:102AE000E068002828682BD040F480702860FFF749
:102AF0000BFC064619E02868400502D5E06800286E
:102B000091D06868217C20F0FE4040EA0160686056
:102B1000BF480068FFF716FC002800D120E072E1F2
:102B2000FFF7F2FB801B0228B8D828684005F7D5CC
:102B30006868217C20F0FE4040EA016068600FE098
:102B400020F480702860FFF7DFFB064605E000BF39
:102B5000FFF7DAFB801B0228A0D828684005F7D4CD
:102B60002078000729D560690028D5F8940013D093
:102B700040F00100C5F89400FFF7C6FB064606E0EA
:102B800090E000BFFFF7C0FB801B022886D8D5F875
:102B900094008007F6D510E020F00100C5F89400FD
:102BA000FFF7B2FB064604E0FFF7AEFB801B0228EE
:102BB00078D8D5F894008007F6D42078400761D5FE
:102BC000A86D0026C00008D4A86D40F08050A8650C
:102BD000A86D012600F0805000908E480168C9055C
:102BE00011D40168804641F480710160FFF78CFBCD
:102BF000074604E0FFF788FBC01B022852D8D8F82C
:102C00000000C005F6D5A068012815D00528D5F824
:102C1000900016D020F00100C5F89000D5F8900083
:102C200020F00400C5F89000A06841F28838B8B1DF
:102C3000FFF76AFB07460EE0D5F8900040F0010070
:102C4000F0E740F00400C5F89000F5E7FFF75CFB03
:102C5000C11B414526D8D5F890008007F6D50CE079
:102C6000FFF752FB074604E0FFF74EFBC11B41454F
:102C700018D8D5F890008007F6D41EB1A86D20F0C2
:102C80008050A8652078800629D5A0690028D5F84D
:102C9000980013D040F00100C5F89800FFF734FB0E
:102CA000064606E075E000BFFFF72EFB801B0228FA
:102CB0006FD8D5F898008007F6D510E020F0010015
:102CC000C5F89800FFF720FB064604E0FFF71CFB61
:102CD000801B02285DD8D5F898008007F6D4E069FB
:102CE000F0B3A968C1F3810103295DD002282868E7
:102CF00020F08070286003D0FFF706FB04464BE00D
:102D0000FFF702FB064604E0FFF7FEFA801B0228ED
:102D10003FD828688001F7D4F4E908016FF00F026A
:102D200002EB01110843218A5204490802EB415188
:102D3000A26841EA02210843217D4FF07E42490802
:102D400002EB41610843217B40EAC160E968324AF5
:102D500011400843E860286840F08070286000E077
:102D60005EE0E86840F08070E860FFF7CDFA044666
:102D700005E000BFFFF7C8FA001B022809D8286841
:102D80008001F7D54CE000BFFFF7BEFA001B022818
:102D900002D90320BDE8F88328688001F4D4E868EC
:102DA0001E490840E8603BE00128F3D0E868226A49
:102DB00000F00301914226D1616A00F0F00209019E
:102DC000103991421FD1A26A00F4FE41B1EB022FEB
:102DD00019D194F82C2000F07841B1EBC26F12D1D8
:102DE000218E00F4C00249084905A1F50011914265
:102DF00009D194F8341000F0C06049084906A1F1E7
:102E0000007181420CD00120C4E700000010024094
:102E100000000020007000400C809F01FCFFEEFECF
:102E20000020B7E770B5040009D0606A002540B102
:102E300025616561A56294F85D0040B10CE0012058
:102E400070BD6068B0F5827FF4D0E561F2E784F888
:102E50005C50204600F05CF8022084F85D00206899
:102E6000016821F040010160E1684FF4E0629142A5
:102E700001D9002001E04FF48050B1F5706F02D00D
:102E8000914200D0A562A188228901F4827102F4E6
:102E900004421143227C02F002021143227D02F01F
:102EA00001021143228B02F400721143227F02F0CF
:102EB0003802114394F8202002F080021143228D41
:102EC00002F40052114322681160A169042202EA4F
:102ED000114194F8242000F4805002F010021143B4
:102EE00094F8342002F008021143A28902F47062BF
:102EF00011430143206841602068C16921F40061E9
:102F0000C1612566012084F85D00002070BD0000CD
:102F100070B586B0044614216846FDF7B4FB1C4921
:102F20002068884231D11B48816D41F48041816520
:102F3000816D01F480410591C16C41F00201C164D1
:102F4000C16C01F002010591C16C41F00101C16445
:102F5000C06C022500F0010005904FF40050009075
:102F60000024CDE901540526CDE9034669460A4807
:102F7000FFF7A0F8A8020090CDE90154CDE903467F
:102F800069464FF09040FFF795F806B070BD00001D
:102F90000038004000100240000400482DE9F84FBE
:102FA000044690F85C000026984615468A4601289B
:102FB0000CD0012784F85C70FFF7A6F9814694F8DD
:102FC0005D00B346012804D00226ACE00220BDE833
:102FD000F88FBAF1000F79D0002D77D0032084F854
:102FE0005D00C4F860B0C4F838A0A587E587C4F8D0
:102FF00040B0A4F844B0A4F846B0C4F850B0C4F847
:103000004CB0A068B0F5004F09D12068016821F0EC
:10301000400101602068016841F48041016020683E
:103020000168490603D4016841F040010160E0688D
:10303000B0F5E06F606828D908B1012D1FD1A06BF1
:1030400021680088C86006E020688168890709D582
:10305000A16B0988C160A06B801CA063E08F401E3B
:10306000E0870CE0FFF750F9A0EB0901414503D3DD
:10307000B8F1FF3F03D006E0B8F1000F03D0E08FB6
:103080000028E1D13BE003264BE008B1012D33D10C
:10309000E08F0128A06B03D921680088C8600FE089
:1030A00021680078087314E0E08725E020688168D3
:1030B000890714D5E18F0129A16B08D90988C1605E
:1030C000A06B801CA063E08F801EEDE727E00978ED
:1030D0000173A06B401CA063E08F401EE4E7FFF784
:1030E00013F9A0EB0901414503D3B8F1FF3F03D029
:1030F000C9E7B8F1000FC6D0E08F0028D6D14A4604
:103100004146204600F00FFE08B120202066A0684E
:1031100018B92068C16880680090206E08B1012647
:1031200001E084F85D7084F85CB030464FE710B57C
:10313000401EB0F1807F01D3012010BD4FF0E0248C
:1031400060610F21601701F034FE0020A0610720AC
:103150002061002010BD0000F0B590F83C20012A4D
:103160003AD0012580F83C50022280F83D200368C7
:103170005A689C68194E1A4FB34201D0BB4204D121
:1031800022F4700C4A6842EA0C02DFF858C002EAE6
:103190000C02D1F800C04CEA020CC3F804C002686B
:1031A000B2420DD0B2F1804F0AD00F4B9A4207D0F5
:1031B0000E4B9A4204D0BA4202D00D4B9A4204D12F
:1031C000896824F080031943916080F83D50002104
:1031D00080F83C100846F0BD0220F0BD002C0140F4
:1031E000003401408FFFFFFD000400400008004054
:1031F0000040014010B586B0044614216846FDF732
:1032000042FA0F492068884217D10E48C16C41F03C
:103210000101C164C06C694600F0010005904FF4E3
:1032200080500090022001900020029003900A201C
:1032300004904FF09040FEF73DFF06B010BD000037
:10324000000800400010024070B5044690F83C00B1
:1032500000260D4601280BD0012084F83C000C2AE2
:103260004AD007DC82B1042A20D0082A06D131E0F6
:10327000022070BD102A53D0142A63D001260020EA
:1032800084F83C00304670BD206801F049F92068A0
:10329000816941F0080181612068816921F00401A0
:1032A0008161206881692A69114311E0206801F079
:1032B00085F92068816941F4006181612068816934
:1032C00021F480618161206881692A6941EA0221D3
:1032D0008161D4E7206801F0B9F92068C16941F043
:1032E0000801C1612068C16921F00401C161206841
:1032F000C1692A69114311E0206801F0EFF92068E3
:10330000C16941F40061C1612068C16921F4806133
:10331000C1612068C1692A6941EA0221C161AEE741
:10332000206801F023FA2068016D41F00801016571
:103330002068016D21F0040101652068016D2A6992
:10334000114311E0206801F049FA2068016D41F451
:10335000006101652068016D21F4806101652068CC
:10336000016D2A6941EA0221016588E710B5040070
:1033700003D094F83D0010B107E0012010BD0020FB
:1033800084F83C00204600F023F8022084F83D0039
:10339000211D206801F058F8012084F8480084F8C5
:1033A0003E0084F83F0084F8400084F8410084F82F
:1033B000420084F8430084F8440084F8450084F80F
:1033C000460084F8470084F83D00002010BD00004E
:1033D00008B500680649884208D10648816D41F069
:1033E00004018165806D00F00400009008BD0000BC
:1033F000000800400010024030B50446022269B1C6
:10340000042912D0082917D00C291CD0102921D04A
:1034100094F84300012824D0012030BD94F83E00E8
:103420000128F9D184F83E201DE094F83F000128DE
:10343000F2D184F83F2016E094F840000128EBD147
:1034400084F840200FE094F841000128E4D184F88A
:10345000412008E094F842000128DDD184F84220A0
:1034600001E084F843200122206801F04BF8194B59
:1034700020681949194A984209D0884207D09042D9
:1034800005D0174DA84202D0164DA84203D1456C75
:1034900045F400454564206898420CD0B0F1804F57
:1034A00009D0114B984206D0104B984203D0884265
:1034B00001D0904207D181680D4A1140062906D0FB
:1034C000B1F5803F03D0016841F0010101600020A7
:1034D00030BD0000002C014000340140004001409C
:1034E0000044014000480140000400400008004042
:1034F0000700010090F88410012918D0012180F8FC
:1035000084102421C0F8881001680A680B6823F031
:1035100001030B6022F0005100224266036819602B
:103520002021C0F8881080F88420104670470220BF
:1035300070477047704770B5044690F884000128C2
:103540001DD0012084F884002420C4F8880020685D
:103550000568026822F0010202602068826822F099
:1035600060620A438260204601F070F920680560BD
:103570002020C4F88800002084F8840070BD022058
:1035800070BD70B5044690F8840001281DD001205C
:1035900084F884002420C4F8880020680568026844
:1035A00022F0010202602068826822F060420A4331
:1035B0008260204601F04AF9206805602020C4F8A6
:1035C0008800002084F8840070BD022070BD704720
:1035D000704770472DE9F04103680446D8691968BF
:1035E0009A6840F60F0528424FF000054FF002069A
:1035F0000AD187067ED501F0200702F0805C57EAE9
:103600000C0777D0616F3AE1B24FDFF8CCC21740B8
:1036100001EA0C0C57EA0C0C6CD05FEAC07C0CD0B1
:103620005FEAC15C09D54FF0010CC3F820C0D4F8A3
:10363000903043F00103C4F89030830709D5D307D5
:1036400007D023681E62D4F8903043F00403C4F816
:10365000903043070AD5D30708D026680423336285
:10366000D4F8903043F00203C4F8903003070CD52F
:1036700001F020033B4308D0266808233362D4F8C6
:10368000903043F00803C4F8903003050BD54B018C
:1036900009D526684FF400633362D4F8903043F0C4
:1036A0002003C4F89030D4F89030002B3DD0800631
:1036B00009D501F0200002F08051084303D0616F6A
:1036C00009B120468847D4F89000216889684906E6
:1036D00002D410F0280F2AD0204601F09DF920686E
:1036E000806840061ED52068083050E8001F21F091
:1036F000400100E021E040E80012002AF3D1D4F8B4
:10370000800078B175498163D4F88000FEF7C6FB6C
:1037100000280AD0D4F88000816B00E02046BDE884
:10372000F04108472046FFF754FFBDE8F0812046EE
:10373000FFF74FFFC4F89050F7E7D4F86CC020278C
:10374000BCF1010F7ED15FEAC06C7BD55FEAC16C32
:1037500078D51020186220688068400645D5D4F8D6
:103760008010086840680004000CDED0B4F85C20CB
:103770008242DAD9A4F85E000868006880062CD47A
:10378000216851E8000F20F4807041E80002002A0F
:10379000F6D12068083050E8001F21F0010140E810
:1037A0000012002AF5D12068083050E8001F21F0EF
:1037B000400140E80012002AF5D1C4F88C70E5669B
:1037C000206850E8001F21F0100140E80012002A94
:1037D000F6D1D4F88000FEF72CFB2667B4F85C0025
:1037E000B4F85E10401A81B230E0B4F85C00B4F86E
:1037F0005E10401A81B2B4F85E00002895D000290E
:1038000093D0226852E8000F20F4907042E8000341
:10381000002BF6D12F4BDB432068083050E8002FF7
:103820001A4040E8002CBCF1000FF5D1C4F88C70B0
:10383000E5666567226852E8000F20F0100042E854
:10384000000300E006E0002BF4D126672046FFF7D6
:1038500070FE6AE7C60209D5560207D54FF48010FC
:1038600018622046BDE8F041FFF7B2BE03060AD554
:1038700001F0800302F40002134304D0A16F002979
:103880007FF44CAF51E7420611D54A060FD52046CA
:10389000026852E8001F21F0400142E80013002BAB
:1038A000F6D1C0F88870856700F007F93DE702029D
:1038B00006D54A0004D52046BDE8F041FFF787BE93
:1038C000C001C6D50029C4DA2046BDE8F041FFF7A3
:1038D00031BE00000100001020010004054A00086C
:1038E00010B5040003D0D4F8880010B107E001201F
:1038F00010BD002084F88400204600F027F8242022
:10390000C4F888002068016821F001010160A06A04
:1039100010B1204600F0BCFF204601F0A7F80128B6
:10392000E6D02068416821F49041416020688168B8
:1039300021F02A0181602068016841F001010160E5
:103940002046BDE8104001F007B8000070B598B0FF
:103950000646142111A8FCF796FE44216846FCF7A0
:1039600092FE25493068884244D101200025CDE9E6
:1039700000056846FEF7C6FD08B1FEF758FA1F4974
:10398000086E40F480400866086E00F4804016908F
:10399000C86C40F00200C864C86C11A900F00200B5
:1039A0001690C02011900220CDE912050720CDE924
:1039B00014501348FEF77EFB134C12482060192068
:1039C00060601020C4E902058020C4E90405A561F7
:1039D000E56120462562FEF7FBFA08B1FEF727FAFB
:1039E000F467002211462520A662FEF7F3FC25208D
:1039F000FEF7E2FC18B070BD003801400010024034
:103A00000004004808000240580100202DE9F84356
:103A10000446D0F88800984616460D46202802D065
:103A20000220BDE8F883A5B19EB10020C4F8900043
:103A30002120C4F888001834FEF766FCA68781466A
:103A4000E68754F8100C2027183CB0F5805F02D0B0
:103A500003E00120E5E7206910B12E46002510E0C3
:103A600000260EE08021204601F03AF9C0B9DEB10F
:103A700016F8010B21688862B4F85600401EA4F8BD
:103A80005600B4F856004B464FF00002CDF80080C7
:103A90000028E7D14FF04001204601F021F940B164
:103AA000C4F888700320BCE735F8020BC0F30800A7
:103AB000E0E7C4F888700020B3E77047FEE7000035
:103AC0007CB5144C206801F02DFACDE9000112A25A
:103AD00017211448FCF7D8FC94ED000ADFED120A18
:103AE00000254FF4784330EE200A11A2294684EDD8
:103AF000000A0E4C2846CDE9005400F07DFACDE9CD
:103B000000544FF6E073074A2821002000F074FAB1
:103B10007CBD00001000002069203D20252E31666C
:103B200000000000F80200209A99993EB45D000858
:103B300048656C6C6F20576F726C6420313233347F
:103B400035363738390000000D4808B5816C41F032
:103B500004018164816C01F004010091816C41F0E9
:103B600001018164806C002200F001000090114688
:103B70000B20FEF72FFCBDE808400B20FEF71CBC15
:103B80000010024010B586B014216846FCF77BFD9A
:103B90001548C16C41F02001C164C16C01F02001E5
:103BA0000591C16C41F00201C164C16C01F00201D8
:103BB0000591C16C41F00101C164C06C0B4C00F077
:103BC00001000590002238212046FEF797FB38209F
:103BD000009001200021CDE90101039169462046B2
:103BE000FEF768FA06B010BD00100240000400485D
:103BF000134810B5114901604FF4827141604FF4D0
:103C0000004181604FF4E061C16000214FF4007217
:103C10000161C0E905121822C0E9072107224162AB
:103C2000C0E90A12016308214163FFF7FBF800288D
:103C300003D0BDE81040FEF7FAB810BD00380040D0
:103C40001400002010B58AB00024079408941C21A9
:103C500068460994FCF717FD1648154901609F2135
:103C6000C0E9011440F2E731C0E903148461FFF7B1
:103C70007DFB08B1FEF7DBF8079407A90D4809940E
:103C8000FFF76AFA08B1FEF7D2F87020CDE9000418
:103C900002940422694607480494FFF7D5FA08B154
:103CA000FEF7C5F80348FFF7A5FA0AB010BD0000FB
:103CB0000008004078000020184810B5164901603F
:103CC0004FF461214160002181600C22C160C0E994
:103CD00004128161C161016241628162FFF700FEED
:103CE00008B1FEF7A4F800210C48FFF74AFC08B120
:103CF000FEF79DF800210948FFF71DFC08B1FEF70B
:103D000096F80648FFF7F6FB002803D0BDE8104000
:103D1000FEF78DB810BD000000380140C40000203F
:103D2000FEE7FEE77047F8B515460E460B460092D3
:103D3000044600224FF4C05100F01AF888B9334607
:103D4000002280212046009500F082F848B93346D1
:103D500000224FF4C0612046009500F009F80028C9
:103D600004D0206E40F0200020660320F8BD000043
:103D70002DE9FE4F4FF0000A984617460E460446BE
:103D80000C9D8DF804A0FEF7BFFA411BA8EB0105BE
:103D9000FEF7BAFA814620684FF4C06B0C300290EF
:103DA0002A480068C0EBC00000EB8000000D6843AB
:103DB000009043E05E4506D12FB9029800788DF857
:103DC00004009DF80400B8F1FF3F37D0FEF79CFADD
:103DD000A0EB0900A84203D215B1009858B32BE01C
:103DE0002068416821F0E00141606068B0F5827FA1
:103DF0000BD1A068B0F5004F02D0B0F5806F04D1B0
:103E00002068016821F040010160A06AB0F5005F00
:103E100009D12068016821F400510160206801681F
:103E200041F400510160012084F85D0084F85CA039
:103E30000320BDE8FE8F0025401E009020688068AA
:103E40003040B842B6D10020F3E700000C0000205B
:103E50002DE9F8431E46914688460446089DFEF724
:103E600053FA401B351AFEF74FFA074625480068FB
:103E7000C0F3CB30684338E0701C37D0FEF744FA0B
:103E8000C01BA84203D215B1009860B32CE0206893
:103E9000416821F0E00141606068B0F5827F0BD19C
:103EA000A068B0F5004F02D0B0F5806F04D1206853
:103EB000016821F040010160A06AB0F5005F09D1FE
:103EC0002068016821F4005101602068016841F414
:103ED00000510160012084F85D00002084F85C003E
:103EE0000320BDE8F8830025401E0090206881680B
:103EF00038EA010004D000214945BDD10020F0E797
:103F00000121F9E70C0000202DE9FF4F83B098460E
:103F1000DDE910954A1E6B782C781A44D3B2421E04
:103F20002244D2B2C9B2C0B200F0BAF92C2000F0DB
:103F30000FFA00262AE005996A68203911FB006013
:103F400032F810704FEA1820019008F0FF000024AA
:103F50004FEA192B09F0FF0A009013E007FA04F06A
:103F6000000406D501988DF8080000988DF8090026
:103F700003E08DF808B08DF809A0022102A800F036
:103F800005FA641C2878A042E8D8761C6878B0420C
:103F9000D1D807B0BDE8F08F2DE9F0411E46069B51
:103FA000002415461F0A134ADBB207E002F814701A
:103FB00002EB440C641C8CF80130A4B2AC42F5D383
:103FC0008A19521ED3B24219521ED2B2C9B2C0B21D
:103FD00000F066F92C2000F0BBF900246D0005E02C
:103FE0002946044800F0D2F9641CA4B2B442F7D3C5
:103FF000BDE8F081B80100202DE9FC479946DDE9D4
:104000000A8416460F46054616E020782844A02864
:1040100003D960780025384487B260783844502846
:104020000DD8CDE900844B4639462846FFF76CFF92
:104030002078761C284485B23278002AE5D1BDE884
:10404000FC8708B5002100905023A0220846FFF706
:10405000A3FF08BD10B500F00DF9112000F078F9AC
:104060007820FEF715F8B12000F072F9012000F079
:1040700051F92C2000F04EF92D2000F04BF9B22020
:1040800000F066F9012000F045F92C2000F042F91B
:104090002D2000F03FF9B32000F05AF9012000F084
:1040A00039F92C2000F036F92D2000F033F90120E9
:1040B00000F030F92C2000F02DF92D2000F02AF925
:1040C000B42000F045F9072000F024F9C02000F0EA
:1040D0003FF9A22000F01EF9022000F01BF9842015
:1040E00000F018F9C12000F033F9C52000F012F9F2
:1040F000C22000F02DF90A2000F00CF9002000F099
:1041000009F9C32000F024F98A2000F003F92A20DD
:1041100000F000F9C42000F01BF98A2000F0FAF842
:10412000EE2000F0F7F8C52000F012F90E2000F0A4
:10413000F1F8202000F00CF93A2000F009F90520F0
:1041400000F0E8F82A2000F003F9002000F0E2F87F
:10415000002000F0DFF8002000F0DCF87F2000F005
:10416000D9F82B2000F0F4F8002000F0D3F800205C
:1041700000F0D0F8002000F0CDF89F2000F0CAF841
:10418000E02000F0E5F8022000F0C4F81C2000F068
:10419000C1F8072000F0BEF8122000F0BBF837206D
:1041A00000F0B8F8322000F0B5F8292000F0B2F89D
:1041B0002D2000F0AFF8292000F0ACF8252000F009
:1041C000A9F82B2000F0A6F8392000F0A3F8002071
:1041D00000F0A0F8012000F09DF8032000F09AF80C
:1041E000102000F097F8E12000F0B2F8032000F072
:1041F00091F81D2000F08EF8072000F08BF80620C3
:1042000000F088F82E2000F085F82C2000F082F8CD
:10421000292000F07FF82D2000F07CF82E2000F0FF
:1042200079F82E2000F076F8372000F073F83F2060
:1042300000F070F8002000F06DF8002000F06AF83F
:10424000022000F067F8102000F064F8132000F05E
:104250007FF80A20FDF71CFF292000F079F80A20DA
:10426000FDF716FF002000F03BF8BDE810400020ED
:10427000FFF7E7BE10B5094C002208212046FEF7E3
:104280003DF86420FDF704FF012208212046FEF7D7
:1042900035F8BDE810406420FDF7FABE0004004880
:1042A000F8B50646154601F1180703F118042A204F
:1042B00000F04EF8002000908DF801608DF803505A
:1042C0000421684600F062F82B2000F041F88DF8D8
:1042D00001708DF803400421684600F057F8F8BDDE
:1042E00010B5002430B1012806D0022806D00328DA
:1042F00007D105E0C82404E0A82402E0082400E077
:104300006824362000F024F82046BDE8104000F074
:1043100001B8000031B50C4C012220212046FDF7E8
:10432000EDFF002210212046FDF7E8FF4FF0FF339C
:10433000012269460548FEF731FE01221021204680
:10434000FDF7DCFF38BD0000000400481400002029
:1043500031B50C4C002220212046FDF7CFFF002272
:1043600010212046FDF7CAFF4FF0FF3301226946B6
:104370000548FEF713FE012210212046FDF7BEFF7F
:1043800038BD0000000400481400002070B50D4E38
:104390000D460446012220213046FDF7AFFF0022E2
:1043A00010213046FDF7AAFFAAB24FF0FF33214695
:1043B0000548FEF7F3FD3046BDE8704001221021AC
:1043C000FDF79CBF00040048140000207047FDF773
:1043D000A1BF10B594B038216846FCF754F91421F8
:1043E0000EA8FCF750F90020FEF726F801200090F7
:1043F0000004019002200324CDE907042821CDE91F
:104400000A100C900D9009946846FEF709FB08B15C
:1044100072B6FEE70F20CDE90E0400201090119037
:10442000129004210EA8FEF7B1F9002801D072B64F
:10443000FEE714B010BD00000248016841F47001AD
:104440000160704788ED00E02DE9F0430268264BDB
:10445000264D274E274C4FF08049984207D04845BB
:1044600005D0A84203D0B04201D0A04203D122F02F
:1044700070074A683A43204FDFF880C0DFF8808039
:1044800098420DD048450BD0A84209D0B04207D081
:10449000A04205D0B84203D0604501D0404503D1C9
:1044A00022F44075CA682A434D6922F080022A43EB
:1044B00002608A68C2620A688262984207D0A0429B
:1044C00005D0B84203D0604501D0404501D109690B
:1044D0000163012141610169C90703D0016921F02C
:1044E00001010161BDE8F083002C0140000400409F
:1044F00000080040003401400040014000440140F9
:104500000048014010B501F01F030121046A9940E1
:104510008C430462016A9A401143016210BD00009D
:104520002DE9F043056A026A22F001020262436843
:1045300082691C4C25F0020522400C6822F003021F
:1045400014438A68194E2A43174D194FDFF864C087
:10455000DFF86490A84207D0B04205D0B84203D03B
:10456000604501D0484506D122F00808CA6842EAF1
:10457000080222F00402A84207D0B04205D0B84297
:1045800003D0604501D0484505D14D6923F44073FF
:104590001D438B692B434360846149684163026218
:1045A000BDE8F0838FFFFEFF002C01400034014086
:1045B000004001400044014000480140F0B5056A58
:1045C000026A22F01002026242688369194C1B4E93
:1045D00023400C6823F4407343EA042425F02003AD
:1045E0008D6843EA0513144DA84201D0B04206D1AC
:1045F000CF6823F0800343EA071323F04003A84267
:104600000AD0B04208D00E4DA84205D00D4DA842A8
:1046100002D00D4DA84207D14D6922F4406242EA12
:1046200085028D6942EA850242608461496881633E
:104630000362F0BDFF8FFFFE002C014000340140FB
:10464000004001400044014000480140F0B5056AC7
:10465000026A22F4807202624368C269194C1B4EDE
:1046600022400C6822F00302144325F400728D6886
:1046700042EA0522144DA84201D0B04206D1CF68CB
:1046800022F4006242EA072222F48062A8420AD0A1
:10469000B04208D00E4DA84205D00E4DA84202D01F
:1046A0000D4DA84207D14D6923F4405343EA051349
:1046B0008D6943EA05134360C4614968C1630262BE
:1046C000F0BD00008FFFFEFF002C014000340140D0
:1046D000004001400044014000480140F0B5056A37
:1046E000026A22F4805202624268C369194C1B4E6E
:1046F00023400C6823F4407343EA042425F4005358
:104700008D6843EA0533144DA84201D0B04206D16A
:10471000CF6823F4004343EA073323F48043A842DD
:104720000AD0B04208D00E4DA84205D00D4DA84287
:1047300002D00D4DA84207D14D6922F4404242EA11
:1047400085128D6942EA85124260C461496801643C
:104750000362F0BDFF8FFFFE002C014000340140DA
:1047600000400140004401400048014030B5056A66
:10477000026A22F4803202624268036D114C2340C7
:104780000C681C4325F400330D8943EA05430E4DA4
:10479000A8420BD00D4DA84208D00D4DA84205D01F
:1047A0000C4DA84202D00C4DA84204D14D6922F410
:1047B000803242EA052242600465496881640362EE
:1047C00030BD00008FFFFEFF002C0140003401408F
:1047D00000400140004401400048014030B5046AF7
:1047E000026A22F4801202624268036D114D24F4C1
:1047F00000142B400D6843EA05230D8944EA055453
:104800000D4DA8420BD00D4DA84208D00C4DA8422A
:1048100005D00C4DA84202D00B4DA84204D14D69E1
:1048200022F4802242EA8522426003654968C1641D
:10483000046230BDFF8FFFFE002C014000340140B8
:1048400000400140004401400048014030B5416E45
:10485000B9B1026891689268C1F342610B4B520F83
:104860009C5CE50003F10804A25CB5FBF2F2A0F841
:104870006A205A5C615CD200B2FBF1F1A0F86810CA
:1048800030BD0121A0F86A10F8E7000030500008A0
:1048900090F82810090706D501684A68836B22F44E
:1048A00000421A434A6090F82810C90706D00168F0
:1048B0004A68C36A22F400321A434A6090F828100A
:1048C000890706D501684A68036B22F480321A43CF
:1048D0004A6090F82810490706D501684A68436B7A
:1048E00022F480221A434A6090F82810C90606D59F
:1048F00001688A68C36B22F480521A438A6090F878
:104900002810890606D501688A68036C22F40052D3
:104910001A438A6090F82810490611D501684A6840
:10492000436C22F480121A434A60416CB1F5801F37
:1049300006D101684A68836C22F4C0021A434A60B7
:1049400090F82810090606D501684A68C06C22F460
:10495000002202434A6070472DE9F84300260446CE
:10496000C0F89060FDF7D0FC8046206800684FF0EA
:10497000200500076FF07E4713D543460022290427
:104980002046009700F0ACF958B1216851E8000FBB
:1049900020F0800041E80002002AF6D1C4F88850D7
:1049A00021E020680068400722D5434600224FF4EA
:1049B00080012046009700F093F9C8B1216851E8C2
:1049C000000F20F4907041E80002002AF6D1206820
:1049D000083050E8001F21F0010140E80012002AD1
:1049E000F5D1C4F88C5084F884600320BDE8F883C6
:1049F000C4F88850C4F88C5044F86C6F6660267612
:104A00000020F3E710B5806A0021A0F85E10A0F83E
:104A10005610FEF7DEFD10BD10B5026852E8001F0B
:104A200021F4907142E80013002BF6D10E4B02687E
:104A3000083252E8001F194042E80014002CF6D159
:104A4000C16E012908D1016851E8002F22F010023F
:104A500041E80023002BF6D12021C0F88C10002162
:104A6000C166416710BD0000FEFFFFEF2DE9F04178
:104A70000446016880682269E36910436269002581
:104A80001A431043DFF82CC20A688B4B1A400243CA
:104A90000A6020684168E26821F440511143416096
:104AA0002168A069614501D0226A10438A68834B5E
:104AB0001A4002438A602068C16A626A21F00F01CD
:104AC0001143C1627E4923687E488B420DD1D0F8E4
:104AD000880010F0030006D0012855D0022842D0EB
:104AE00003283FD152E001203DE077498B420BD1B2
:104AF000D0F8880010F00C0035D0042833D00828F6
:104B000040D00C282ED141E070498B420BD1D0F817
:104B1000880010F0300026D0102835D0202831D061
:104B200030281FD132E06A498B420BD1D0F888007F
:104B300010F0C00017D0402826D0802822D0C028EE
:104B400010D123E063450DD1D0F8880010F4406007
:104B500009D0B0F5806F17D0B0F5006F12D0B0F566
:104B6000406F13D010205B495B4F00264FF400428A
:104B700063453BD160B1022813D004280BD008282C
:104B800072D10DE00220EEE70420ECE70820EAE70E
:104B9000FDF7EAFE01E0FDF70BFF010001D17CE02B
:104BA0001146606A37F810206768B1FBF2F007EB36
:104BB0004703834270D8B0EB073F6DD80023084607
:104BC0001946FBF7CFFB090241EA1061020278089F
:104BD000101871413A460023FBF7C4FB3F4AA0F589
:104BE0004071914258D82168C86056E0E3694FF699
:104BF000EF7893422CD109284ED2DFE800F0050867
:104C0000114D0D4D4D4D1000FDF7AEFE01E0FDF7CD
:104C1000BDFE010004D140E0FDF7CAFEF9E71146F0
:104C2000606A37F81000B1FBF0F04100606801EBFA
:104C30005001B1FBF0F0A0F1100141452CD84FF626
:104C4000F0710140C0F3420001432068C16024E0DC
:104C5000092821D2DFE800F0050912200E202020CB
:104C60001100FDF781FE02E016E0FDF78FFE010066
:104C700004D112E0FDF79CFEF9E71146606A37F8AF
:104C80001000B1FBF0F1606801EB5001B1FBF0F0F6
:104C9000A0F1100141450AD901250120A4F86A00BC
:104CA00024F8680F2846E6602661BDE8F08180B2EE
:104CB00099E7000000800040F369FFCFFFF4FF1187
:104CC000003801400010024000440040004800400D
:104CD000004C00400024F40018500008FFFC0F00B6
:104CE0002DE9F047994617460D4604464FF0000857
:104CF000089E33E0701C31D0FDF706FBA0EB0900E5
:104D0000B04218D8BEB120680168490726D5802D69
:104D100024D0402D22D0C169C94309070DD40825EC
:104D200005622046FFF778FEC4F8905084F884802E
:104D30000120BDE8F0870320FBE7C069C043000500
:104D40000CD421684FF4006008622046FFF764FE2F
:104D50002020C4F8900084F88480ECE72068C069C3
:104D600035EA000004D00020B842C3D00020E0E7BC
:104D70000120F9E70148FEF72DBC0000C400002027
:104D8000FEE703B401984100009850EAC12018BF23
:104D900004204A0D18BF40F0010040F2FF72B2EB50
:104DA000515F08BF40F00200012808BF052002B093
:104DB00070470907090E002804DB00F1E02080F8A5
:104DC0000014704700F00F0000F1E02080F8141D7F
:104DD000704730380A2801D2012070470020704700
:104DE00010B5FFF737F90320FFF77AFA0020FFF735
:104DF00028F904210348FEF7FFFA03494FF496709F
:104E0000086010BD78000020380800400FB44FF44F
:104E1000807100B5C1B043AB6846429AFBF71AFBFC
:104E2000FF2803D96423182206A105E06846FBF792
:104E30000BFC82B2642369460948FEF7E7FD41B0E6
:104E40005DF814FB4C6F67206D65737361676520B7
:104E50007472756E6361746564210D0A0000000050
:104E6000C4000020FDF75EFAFFF7B3FAFEF78AFEF2
:104E7000FEF76AFEFEF720FFFEF7BAFEFEF7E2FE3F
:104E800005A0FFF7C3FFFFF7ABFF08A0FFF7BEFFCA
:104E9000FEF716FEFCE700004C434420496E69749F
:104EA000205374617274210D0A0000004C434420A9
:104EB000496E69742046696E697368210D0A0000A5
:104EC00010B500290AD00878002807D00548784492
:104ED000FCF764FB002801D0002010BD0248784494
:104EE00010BD00000E1000000610000010B50029D3
:104EF0000AD00878002807D005487844FCF74EFB14
:104F0000002801D0002010BD0248784410BD0000E8
:104F1000FE0F0000F60F00000808A0F500114FEA90
:104F20003101704743004FEAD30C4FEA3C0C434039
:104F30001FBF40070CF1605113F0FE4F70471CF08B
:104F4000006F03D100200CF0004170470CF00043CB
:104F500043EA507010B540EACC0000F00EF800BFF4
:104F6000000000924FEA0001FFF7D6BF4FF000416A
:104F70004FF00000A1F5002170470EF1020E2EF057
:104F8000030E5EF8044B244204D44FEA4102B2F10E
:104F90007F4F11D84FEA4003B3F17F4F0CD80ED1A9
:104FA0004FEAD07CB2F17F4F0CEB4C0C0CF1020CB1
:104FB00008BF4CEBD17C04E04FF0080C01E04FEA55
:104FC000D17C0CEB4C0324FA03F404F00704B4F195
:104FD000040C06D20EEB840CBDE810404CF0010C22
:104FE0006047DFE80CF0070802024FF00040A0F530
:104FF000800010BD0846420018BFD2F1807288BF01
:1050000000F0004010BD4FF04070E1EE100A704714
:10501000FBF7EFBCFCF70AB8010002000400060031
:1050200008000A000C001000200040008000000171
:105030000101010307010000080402040801010145
:105040000000000000000000010203040607080938
:105050000000000001020304000000000000000046
:105060000000000000000000000000000000000040
:105070000000000000000000000000000000000C24
:10508000000C000C000C000C000C000C000C000CC0
:10509000000C000C0000000C000C000000000000E0
:1050A0000000001B001B001B001B001B0000000079
:1050B00000000000000000000000000000000000F0
:1050C0000000000000008019801980198019C07F3D
:1050D000C07F80190033C07FC07F003300330033AE
:1050E00000330000000000000000001E003F80753B
:1050F00080650074003C001E0007800580658065A7
:105100008075003F001E00040004000000000070D5
:1051100000D840D8C0D880D900730006000C801B8E
:10512000C036C066C046C006800300000000000014
:105130000000001E003F003300330033001E000C4F
:10514000C03CC066806380618063C03E801C0000FC
:10515000000000000000000C000C000C000C000C13
:10516000000000000000000000000000000000003F
:1051700000000000000000008000000100030006A5
:1051800000060004000C000C000C000C000C000CCD
:10519000000400060006000300018000002000104B
:1051A0000018000C000C00040006000600060006B3
:1051B000000600060004000C000C0018001000207F
:1051C0000000000C002D003F001E00330000000016
:1051D00000000000000000000000000000000000CF
:1051E00000000000000000000000000C000C000C9B
:1051F000000CC0FFC0FF000C000C000C000C0000F5
:10520000000000000000000000000000000000009E
:10521000000000000000000000000000000000008E
:105220000000000C000C0004000400080000000056
:105230000000000000000000000000000000001E50
:10524000001E000000000000000000000000000040
:10525000000000000000000000000000000000004E
:1052600000000000000000000000000C000C000026
:105270000000000000000003000300030006000619
:1052800000060006000C000C000C000C00180018B2
:1052900000180000000000000000001E003F003366
:1052A000806180618061806D806D806180618061DE
:1052B0000033003F001E0000000000000000000658
:1052C000000E001E0036002600060006000600063E
:1052D00000060006000600060006000000000000B0
:1052E0000000001E003F8073806180618001000328
:1052F0000006000C001800300060807F807F0000F6
:10530000000000000000001C003E0063006300037A
:10531000000E000E00038001800180618073003F59
:10532000001E00000000000000000006000E000E3D
:10533000001E001E0016003600360066807F807F4B
:105340000006000600060000000000000000007FCC
:10535000007F006000600060006E007F806380015D
:10536000800180618073003F001E0000000000008B
:105370000000001E003F803380610060006E007FEF
:1053800080738061806180618033003F001E000077
:10539000000000000000807F807F80010003000388
:1053A00000060006000C000C000C00080018001895
:1053B00000180000000000000000001E003F806395
:1053C000806180610021001E003F806180618061FA
:1053D0008061003F001E0000000000000000001E71
:1053E000003F00738061806180618073803F801D19
:1053F000800180610073003F001E0000000000007B
:1054000000000000000000000000000C000C000084
:1054100000000000000000000000000C000C000074
:10542000000000000000000000000000000000007C
:10543000000C000C00000000000000000000000C48
:10544000000C000400040008000000000000000040
:1054500080008003000E003800600038000E8003DA
:1054600080000000000000000000000000000000BC
:10547000000000000000807F807F00000000807F2F
:10548000807F00000000000000000000000000001D
:10549000000000000000000000400070001C000739
:1054A00080010007001C00700040000000000000A8
:1054B000000000000000001F803FC071C060C000FD
:1054C000C00180030007000E000C000C0000000C5F
:1054D000000C0000000000000000001E003F8031B2
:1054E00080718063806F806D806D806F80670060E9
:1054F0000032003E001C0000000000000000000E12
:10550000000E001B001B001B001B80318031803F00
:10551000803F8031C060C060C060000000000000BB
:105520000000007C007E0063006300630063007E77
:10553000007E0063806180618063007F007E0000E8
:10554000000000000000001E003F8031806100600C
:105550000060006000600060006080618031003F9A
:10556000001E0000000000000000007C007F0063BF
:10557000806380618061806180618061806100639F
:105580000063007E007C0000000000000000807FBF
:10559000807F0060006000600060007F007F00602E
:1055A000006000600060807F807F000000000000DD
:1055B0000000807F807F0060006000600060007FEE
:1055C000007F00600060006000600060006000001C
:1055D000000000000000001E003F8031806100607C
:1055E0000060006080638063806180618031803F03
:1055F000001E0000000000000000806180618061EA
:10560000806180618061807F807F80618061806156
:105610008061806180610000000000000000003FA8
:10562000003F000C000C000C000C000C000C000CE7
:10563000000C000C000C003F003F000000000000C8
:1056400000008001800180018001800180018001D3
:1056500080018001806180618073003F001E000036
:10566000000000000000C06080610063006600660A
:10567000006C0078007C00660066006380618061D9
:10568000C0600000000000000000006000600060DA
:10569000006000600060006000600060006000600A
:1056A0000060807F807F0000000000000000C0716B
:1056B000C071C07BC07AC06AC06AC06EC064C0607E
:1056C000C060C060C060C060C0600000000000003A
:1056D000000080718071807980798079806D806D23
:1056E000806D80658067806780678063806300006D
:1056F000000000000000001E003F00338061806158
:105700008061806180618061806180610033003FE1
:10571000001E0000000000000000007E007F80638B
:105720008061806180618063007F007E0060006036
:105730000060006000600000000000000000001E2B
:10574000003F0033806180618061806180618061A1
:10575000806580670033803F401E0000000000002D
:105760000000007E007F8063806180618063007F35
:10577000007E00660063006380618061C06000009D
:10578000000000000000000E001F8031803100305A
:105790000038001E00078003806180618031003F77
:1057A000001E0000000000000000C0FFC0FF000C51
:1057B000000C000C000C000C000C000C000C000C89
:1057C000000C000C000C00000000000000008061D4
:1057D00080618061806180618061806180618061C1
:1057E000806180618073003F001E000000000000A7
:1057F0000000C060C060C060803180318031001B1B
:10580000001B001B001B000E000E000E0004000019
:10581000000000000000C0C0C0C0C0C0C0C0C0C008
:10582000C0CC804C804C805E8052805280738061FE
:1058300080610000000000000000C0C08060806146
:105840000033003B001E000C000C001E001F003B3C
:1058500080718061C0C00000000000000000C0C076
:105860008061806100330033001E001E000C000CBC
:10587000000C000C000C000C000C000000000000EC
:105880000000803F803F8001000300030006000C01
:10589000000C0018001800300060807F807F00003E
:1058A00000000000000F000F000C000C000C000CAA
:1058B000000C000C000C000C000C000C000C000C88
:1058C000000C000C000F000F00000018001800185A
:1058D000000C000C000C000C000600060006000680
:1058E000000300030003000000000000001E001E73
:1058F0000006000600060006000600060006000678
:10590000000600060006000600060006001E001E37
:105910000000000C000C001E0012003300338061F8
:105920008061000000000000000000000000000096
:105930000000000000000000000000000000000067
:105940000000000000000000000000000000000057
:1059500000000000E0FF0000000000380018000C0C
:105960000000000000000000000000000000000037
:105970000000000000000000000000000000000027
:10598000000000000000001F803F80618001801F38
:10599000803F80618063807FC0380000000000008D
:1059A00000000060006000600060006E007F807397
:1059B00080618061806180618073007F006E000083
:1059C0000000000000000000000000000000001EB9
:1059D000003F807380610060006080618073003FE1
:1059E000001E000000000000000080018001800116
:1059F0008001801D803F8073806180618061806153
:105A00008073803F801D0000000000000000000047
:105A1000000000000000001E003F00738061807FD6
:105A2000807F00608071003F001E000000000000C9
:105A30000000C007C00F000C000C807F807F000CAE
:105A4000000C000C000C000C000C000C000C000002
:105A5000000000000000000000000000801D803FEA
:105A6000807380618061806180618073803F801D70
:105A700080018063007F003E0000006000600060E5
:105A80000060006F807F80718061806180618061D3
:105A9000806180618061000000000000000000065D
:105AA000000600000000003E003E00060006000662
:105AB00000060006000600060006000000000000C8
:105AC0000006000600000000003E003E0006000642
:105AD0000006000600060006000600060006004656
